:10000000C098002029100100D9F00100151001004E
:10001000151001001510010015100100000000006E
:10002000000000000000000000000000A511010019
:1000300015100100000000003D1101001510010025
:10004000611301000D0E0200611301006113010034
:1000500061130100611301006113010061130100CC
:10006000C30D02006113010061130100F70D0200CE
:1000700061130100611301006113010061130100AC
:10008000611301006113010061130100611301009C
:10009000611301006113010061130100611301008C
:1000A000611301006113010061130100611301007C
:1000B000611301006113010061130100611301006C
:1000C000611301006113010061130100611301005C
:1000D000611301006113010061130100611301004C
:1000E000611301006113010061130100611301003C
:1000F000611301006113010061130100611301002C
:10010000064B074A5B7802604FF41C728280C37111
:100110000822002382710372704700BF800900200B
:1001200035E30000064B074A9B7802604FF490725B
:100130008280C3710822FF2382710372704700BF5F
:1001400080090020ABDE0000F8B5C41D002824F0B3
:100150000704054614BF2046002000F031FB071EAF
:1001600002DA6FF00B00F8BD0DB9FC42F9D4294E4C
:100170003189F088F37AB27A0331033089B280B2E0
:100180000BF01CFE0028ECDB317873783C44033420
:10019000002D194424F0030400FB01F114BF204694
:1001A000002000F099FC20440DB90028D9DBB2787A
:1001B0000346B2B1F17CF37811441944FF29D0DC35
:1001C0000330002D20F0030414BF20460020F289E4
:1001D000C9B200F0F1FC031EC3DB23440DB9002BB0
:1001E000BFDB317C81B1B27872B10733002D23F0CF
:1001F000070414BF2046002003F096FF031EB0DB67
:1002000023440DB9002BACDB002D0CBF1846002099
:10021000A9E700BF800900201FB572B6184BDD6A40
:10022000E5B9BFF34F8F1749174BCA6802F4E06274
:100230001343CB60BFF34F8F00BFFDE7B2FBF6F275
:10024000DCB20133002AF9D104F110036B4403F846
:100250000C2C0A2234B901A8A847E2E70246002381
:100260000A26EDE7631E04AEDCB256FA83F3B0FB58
:10027000F2F602FB1600303003F80C0C3046E9E7CA
:100280008009002000ED00E00400FA0507B50C4BE2
:10029000DA7A8DF801209A7A8DF8002068461A895A
:1002A000DB88ADF80420ADF8023002F0EDFA18B1A9
:1002B000DB210320FFF7B0FF03B05DF804FB00BFB4
:1002C0008009002038B5054668B309F0D9FF10B998
:1002D0004FF0FF3038BD07F02DFAB0F5FA7FF7D8B0
:1002E000134C1448E562002500F0E4F92A2229465F
:1002F000204684F830500AF057FB01236370A37046
:100300001B23E380238140F2032363811F23E381C6
:1003100008232374EFF3108472B600F023FD2CB988
:1003200062B62046D6E76FF01500D3E72846D1E73E
:10033000800900208D02000010B5002842D1244C15
:1003400094F83030032B3AD059B1002A3DD002390D
:10035000052937D8DFE801F0031428362B2E13784F
:1003600063700020FFF7F0FE0028B7BF01230223CF
:1003700084F830306FF00B00A8BF84F8303010BD27
:10038000137913B3537903B31188FB291DD81A29A4
:1003900053881AD91B3BE02B17D81368C4F80630D2
:1003A0000C4B92889A80DCE71378A370D9E7138806
:1003B000E381D6E71388FF2B07D82374D1E74FF0EA
:1003C000FF30DCE76FF02C00D9E76FF01500D6E7BF
:1003D0008009002086090020F8B50D46064630B396
:1003E00029B311F0070422D1124F97F83030012BB6
:1003F00002D16FF00B00F8BD032B02D14FF0FF309C
:10040000F9E700F08FF80028F8D02846FFF79CFEA7
:100410000028EEDB0DF0EFFF3046214602F0BAFA7D
:10042000FFF734FF032387F830302046E3E76FF00F
:100430001500E0E78009002010B5074C94F8303033
:10044000032B03D102F0BEFA03F090F90BF0ACFDE0
:10045000002084F8300010BD8009002050B1074B07
:1004600003F1140253F8041B40F8041B9342F9D122
:10047000002070476FF01500704700BF414A02002E
:1004800010B5074B93F830403CB902F04DFA01200B
:10049000044900F08DF9204610BD4FF0FF30FBE716
:1004A000800900202501000010B5074B93F830406B
:1004B0003CB902F04DFA2046044900F079F9204693
:1004C00010BD4FF0FF30FBE7800900200101000064
:1004D00010B5054B93F830401CB90CF0D7FC204602
:1004E00010BD4FF0FF30FBE78009002010B5054B31
:1004F00093F830401CB90CF0CCFC204610BD4FF0F6
:10050000FF30FBE780090020024B02681A600020E0
:10051000704700BFB4090020014B1B68184700BF9B
:10052000B4090020024B1868003818BF012070473A
:10053000B40900202DE9F743294E0446071D284839
:10054000376003F02BF90228054607D124492046DD
:100550000AF093FF284603B0BDE8F083042838D1A1
:100560003378072B18D13E2000F050F878B9F37893
:10057000327901A943EA02236846ADF800300BF056
:10058000F5F90028DBD053210820FFF745FE0520B0
:1005900000F07CF80028EAD0314620460AF0D2FF6D
:1005A000B0F5817F01D37221EEE70028C7D094F81F
:1005B000008094F80290404600F028F80028BED051
:1005C000B8F13E0FC6D1484600F060F80028C1D10E
:1005D000B5E70828BED1024920460AF07DFFB9E7F9
:1005E000B8090020074B4FF0FF3141F6FF72C3E915
:1005F000001205490022C1E900221F21C3E90212AD
:10060000704700BF00000020FC0900203F280CD8E4
:1006100001380B4BC0F3421200F01F0053F8223098
:1006200023FA00F000F001007047FF2806D04038A0
:10063000C0F34212034B00F01F00EFE701207047A8
:1006400000000020FC0900200146074B00684968B3
:100650001A4603C240F48C221A6041F0107242F430
:10066000FF625A60704700BF000000200246024B44
:100670000068516803C37047FC0900200246024B22
:100680000068516803C3704708000020FD281ABFA6
:1006900000F1FF30C0B23F20054B420903EB82035B
:1006A00000F01F009B6823FA00F000F00100704783
:1006B00000000020014B1860704700BF040A0020B2
:1006C00010B5FFF78FFF0CF070F8034B1B68044662
:1006D00003B19847204610BD040A00200B88028809
:1006E000F0B5C3F30E049EB204F11803C57CC35ADF
:1006F00002352A442B4497B213FA82F3013B428815
:10070000B3FBF7F313FB07439BB29A42044A93BF30
:1007100022EA0603324013439BB20B80F0BD00BFB8
:100720000080FFFF4A1E062A08B50346084604D883
:100730004FF4D1711520FFF76FFD094A914202D99C
:1007400040F2A311F6E711B903B1196008BD2BB14E
:100750001B680022C3E901211A1D1A600430F5E765
:10076000FAFFFF7F10B5114B00EB41041A78638943
:10077000B3FBF2F303FB0223013A1A44B2F5706FA4
:10078000027928BF00231A448378B2FBF3F019449E
:1007900003FB1020091AB1FBF3F003FB1013134401
:1007A0006FEA43436FEA5343638110BD080A002098
:1007B000024B03EB80035960704700BF080A00201A
:1007C0002DE9F04F10F0070A85B0054604D040F23D
:1007D00061111720FFF720FD554F07F10C06B146B8
:1007E0000446B0464FF0010B57F8043B8DF80BA0C0
:1007F0003BB101A898479DF80A30082B01D9E821A0
:10080000E7E79DF80B1081BB05B13160B94506F1F2
:100810000406E9D12DB3DFF81CE100238EF8003087
:100820001E46022258F82200013A60B190F804A056
:100830008178BAF1FF0F66D14FF000078E42077141
:100840003CBFCEB20123511CECD10BB18EF800603D
:10085000022640F6FF6A58F82670002F65D1013E47
:10086000F9D2601B05B0BDE8F08F9DF80AC0BCF15D
:10087000020FE64601F1050238BF4FF0020E0EF1FD
:10088000FF3004EB42040444CEF100002040BDF8E8
:1008900008406444013CCCF1000C04EA0C04B4F5BB
:1008A000803F4FEA420301D3F82192E775B1C31AA2
:1008B000336099701C8083F803B09DF80C201A7186
:1008C000019A1A814FEA124CA3F806C004FB0104F6
:1008D0009CE758F82C90B9F1000F06D099F804B0B5
:1008E000D34504BF99F802904F440CF1FF3CBCF192
:1008F000000FEEDA3944FF29A0D90BB18EF8006061
:1009000040F2271165E794460027F0E707EB410323
:100910003846A3F80AA0FFF725FF09F10109BB78C3
:100920005FFA89F18B42F1D899E74FF00009F6E7B9
:100930000C0A0020080A0020F8B54FF6FF73038068
:10094000184B03EB810305461869B8B18678037923
:10095000B3FBF6F206FB1233DBB219460A1D00EBBD
:100960004202B2F902705488002F09DB0131B1FB59
:10097000F6F206FB1211C9B28B42EFD10020F8BD8E
:10098000FF29FBD0C4F30E03C4782B8024B94FF4A5
:10099000D5711720FFF740FC5380BDE8F8400BF0FD
:1009A000ECB900BF080A00201D4B03EB810370B5B2
:1009B0001C69054644B3030404D54FF4DC711720C9
:1009C000FFF72AFC014620460BF0B9F9FF28014643
:1009D00004D02046BDE870400BF0CFB9A078B5FB3D
:1009E000F0F300FB1353DBB219460A1D04EB420679
:1009F000B6F90260002E09DB0131B1FBF0F200FB19
:100A00001211C9B28B42F0D1002070BDFF29FBD07A
:100A10008B4204EB42021CBF0023E3705580D8E7F1
:100A2000080A0020094B03EB810310B51C6901463D
:100A300020460BF084F9FF28014604D02046BDE88B
:100A400010400BF09AB9002010BD00BF080A00202A
:100A5000F8B5104B03EB810307461C69014620469D
:100A60000BF06DF9FF28054611D0E688238953EA7B
:100A7000064606D0014620460BF07FF9014638466F
:100A8000B04720462946FFF76DFE0020F8BD05203F
:100A9000FCE700BF080A002038B50E4B827903EB53
:100AA00082030446186908B9052038BD8278E179C7
:100AB0009142F9D24B1CE37100EB41035D89B3F91C
:100AC0000A30002BF3DBA5800BF057F920600020E3
:100AD000EBE700BF080A002070B5044610F00300E1
:100AE0000E4603D04F211820FFF796FBFFF71AFEA2
:100AF000054624B1034831460460FFF713FE28463B
:100B000070BD00BF240A00202DE9F14FDFF870B05E
:100B10009DF828A09DF82C901E46DBF80030074673
:100B20000D4690461BB961211820FFF775FB524610
:100B3000092140460AF073FF4A4684B20921304633
:100B40000AF06DFF14FA80F1DBF800000BF0CCF82E
:100B5000386018B9286001B0BDE8F08F04442C60FB
:100B600038685346414609220AF012FF28684B466E
:100B70000922314601B0BDE8F04F0AF009BF00BFBD
:100B8000240A002070B50E4604460AF05BFF0546B5
:100B900030460AF057FF044B2A1821461868BDE872
:100BA00070400BF0C5B800BF240A0020014B186844
:100BB0000BF08EB8240A00201F2AF8B5044613460D
:100BC0000ED89200033222F00303B3F5803F2DD2FA
:100BD000184DACB1A00710D05F210920FFF71CFB16
:100BE000FF2B4FEA420204D9FF339A42A8BF1A46AC
:100BF000E8E77C2AB8BF7C22E4E729706C602B818F
:100C000022F0030201EB81031204D80001276B6874
:100C1000120C0025EEB28E4200D3F8BD14B1261896
:100C20001F705E60104401352833F3E74FF0FF304A
:100C3000F3E700BF280A002038B5144A1478536837
:100C40000021C8B2844203D8AB210920FFF7E4FA9F
:100C50001846013105782833002DF2D0002181702B
:100C600001241289447044688161C161920800F1D5
:100C70002001051D21F8022B994245F8044B14442C
:100C8000F8D100234361037038BD00BF280A00205B
:100C90002DE9F8434B7880460C4602F0040602F03A
:100CA000FB07D3B1DFB12E4BD4F804901D89B7BB3D
:100CB00001236370AD08A761E76104F120034A4690
:100CC000211D04F1280023F8025B984241F8042B0F
:100CD0002A44F8D10023636101E0002FE3D0FF2311
:100CE000A370002E18BF0226A3191B7D032B03D16E
:100CF000022F1CBF0136F6B2A31901221A7506F1A4
:100D00000C0204EB8606002324F812307268A370EC
:100D1000C8F80020A8F804304046BDE8F883002158
:100D200014226170A01809F03FFEB5F5FF7F0FD2C5
:100D30006B08ED1AADB209EB0502C4F804902584E6
:100D4000A2606384C4F80C90A5842261E384C6E7A2
:100D5000B5F5EE6F4FF0FF03EBD940F27265EAE7AD
:100D6000280A0020134B012200214FF0FF309A6027
:100D7000C3F80012C3F80803C3F80015C3F804252C
:100D80009A60C3F80803C3F80015C3F804250A499C
:100D90000A4A03F580334FF40040C3F80825C1F830
:100DA0008000BFF34F8FBFF36F8FC1F88001C3F88E
:100DB0000825704700F0004000E100E00000F63F29
:100DC0000A46192302F8033B0448C368C1F80330FC
:100DD0000369536043699360704700BF340A002081
:100DE000024B5A8C02435A845B6A1847340A00202B
:100DF000014B00215B6A1847340A002010B5154CDE
:100E000005F024FD05F0BCF8208DFFF7F1FF237EEF
:100E100063B12246104952F80C3BE36063685360AB
:100E200004F11900A36893600CF0AEFC0B4B228D0B
:100E300093E8030003F002FA236B188803F028F903
:100E4000A36B94F8341094F835009847002384F885
:100E50003C3010BD340A0020C10D0000600A0020A3
:100E6000034B93F83C300BB1FFF7C8BF704700BF8E
:100E7000340A002070B51E4C256B636C236495F812
:100E80008C30064694F848000BB10430C0B295F897
:100E900069102EB9FF2803D195F868308B4201D034
:100EA00005F070FB95F88C30E3B1E06C05F06EFD59
:100EB000012384F86830D5F8E8302366E16CD5F872
:100EC000EC30206C636605F011F816B9304605F079
:100ED000A5FD95F86810002005F0EAFD022384F8CE
:100EE0003C3070BD206C05F051FD05F049F8ECE791
:100EF000340A002008B5094B93F83C20022A04D09C
:100F000040F22D212720FFF787F9DA7A42F001021B
:100F1000DA72BDE80840FFF771BF00BF340A002055
:100F200010B50E4C626F137803F00303032B04D14A
:100F3000D378022B01D1002010BDA06F0AF00BFE68
:100F40000028F9D1636F1B7803F00303032BF2D061
:100F500001F01EFF80F00100C0B2EDE7340A00206E
:100F60002DE9F743434C94F83C30256B012B0646A2
:100F70000F465FFA83F804D040F29D412720FFF727
:100F80004BF995F87C303BB1002185F87C100420AA
:100F9000FFF726FF85F87E80616F0B7803F003036F
:100FA000032B05D195F8823013B90220FFF718FF03
:100FB000626F137803F00303032B02D0537823BB33
:100FC000012385F8823095F88C30C3B1236BD5F8B6
:100FD000E82093F8690022664FF00108D5F8EC206C
:100FE000626684F868800AF0E1FF94F8489022492C
:100FF00000220346009240464A4604F031FF36B1D3
:1010000003B0BDE8F043FFF7F9BE0223D9E7002F94
:10101000F6D0E36F304698470028F1D094F834308A
:10102000002BEDD194F88030DD06C3F3001001D51C
:10103000FFF776FF636CD4F884201B78C3F30013AA
:101040002AB9B4F8882013B1B2FA82F35B09628C32
:10105000910709D5636FDB78022BD1D1002003B053
:10106000BDE8F043FFF706BF002AC9D10343F5D11D
:10107000C6E700BF340A0020840A002010B5064BE2
:1010800093F83C2002F0FF0422B91C7603F0CEF85E
:10109000204610BD0C24FBE7340A00200A4B0B4A03
:1010A00070B506460D461A60FFF7E8FF18B1DE215D
:1010B0002720FFF7B1F8064C012104F18A000CF05B
:1010C0005DFA6664E56470BD480000208818000081
:1010D000340A0020024B012283F8AC20704700BF85
:1010E000340A0020F0B57D4C85B002AE86E80300DE
:1010F00094F83C100A9F01F0FF0511B90AB103B141
:1011000027B940F26D112720FFF786F896E8030013
:1011100004F12C0C8CE8030084F8AC5084F83450B3
:1011200084F8AD5084F8355084F8AE5084F8AF5050
:1011300065842585256BE3676262A76305F060FA25
:1011400004F01EFF95F9700005F0E8FA686A05F0F2
:101150000FFCE86905F0E8FA95F89C0005F00AFB39
:10116000236B93F89F310BB105F038FA95F869209D
:101170009D21012005F056FB594B186805F0FEFB38
:101180002B69A367574A6B69C4F8B03005F58071C5
:1011900005F1F00353F8040B42F8040B8B42F9D12C
:1011A000D5F80021C4F869205A684F4B5A60236B68
:1011B00093F88620A2F12501012993F868100E46C4
:1011C00003D993F8870025285FD193F846322BB1D5
:1011D000012E03D0012B14BF0226012605F1300792
:1011E000314638460CF00DFB31460CF024F8AB8F3D
:1011F00095F86910834228BF0346384684F8B43016
:101200000CF0EFFA95F8691095F88C70B5F8446019
:10121000042908BF03210CF00EF80FB9043080B286
:10122000B04228BF304695F88C30C6B284F8B5601D
:1012300084F84860A3B1D5F8E83095F869002366D2
:101240000127D5F8EC30636684F868700AF0AEFECA
:1012500000220346009223493246384604F000FE3D
:101260000120FFF707FE002323606360A360B5F849
:10127000803063802B88238095F89C302371EB6E3F
:101280000BB101221A6005B0F0BD203A012A0CD83A
:10129000232893F826210AD012F0010319D19207CE
:1012A0009CD5012918BF022698E723280DD193F871
:1012B000262193F86130134013F001020BD19B07F4
:1012C0008CD5012908BF0E46ECE7032908BF042688
:1012D00084E71E4682E7164680E700BF340A0020F6
:1012E00048000020840A00209D0A002008B50C4B0D
:1012F00093F83C201AB9BDE80840FFF77FBD93F88A
:101300003C20022A04D040F20F212720FEF784FF60
:101310001B6BD3F8B801BDE8084005F051BB00BF16
:10132000340A0020014B1876704700BF340A0020B1
:10133000014B93F8AE007047340A0020024B188D21
:10134000C0F3C020704700BF340A0020014B93F85F
:10135000AD007047340A00202DE9F3411E4D82078D
:101360002C6B06460F4622D5D5F8843023B940F2BF
:101370008E412720FEF750FFB5F88820296C1846CB
:10138000033291F8018009F07BFB0DF1020201A903
:101390002864D5F8B0000AF091FC01980AF078FCB6
:1013A000012238604146D5F8B0000AF01EFCF30770
:1013B0000ED5D4E93A32013342F10002C4E93A329F
:1013C00094F88430012B0CBF0023012384F884306F
:1013D00002B0BDE8F08100BF340A00202DE9F04FD3
:1013E000AB4C002387B0CDE9043394F83C30276B35
:1013F000022B81468A4604D040F211512720FEF785
:101400000BFF238D590606D44020FFF7F1FC238DF6
:1014100043F04003238597F88C30B9F1000F00F0BA
:101420002781A3B104F0C4FD88B9236C5A7872B146
:101430001B7897F88420C3F3C0039A4207D1012395
:1014400084F83530FFF7DAFC07B0BDE8F08F236C85
:101450005978A4F8881009B3D4F8B0000AF09CFBBE
:10146000C4F88400238D97F8832043F40073238508
:10147000236C1B78C3F380039A4200F0BA80256B7B
:1014800095F88230002B3DD0022B11D1A06F04A91A
:101490000AF023FB28B940F20541AFE7C4F88410F5
:1014A000E0E7D5E93832013342F10002C5E93832CC
:1014B00095F87E30002185F8821023B185F87E10E2
:1014C0001020FFF78DFC95F87D309BB1002685F844
:1014D0007D6001F047FC10B940F21C418EE73146B7
:1014E0000820FFF77DFCD5E93832013342F10002D4
:1014F000C5E9383295F88330012B0CBF0023012356
:1015000085F88330238D43F4006323854FF0000B6F
:10151000216C97F884200D78C5F3C0039A4240F0FF
:10152000998005F00305032D266B64D0002D6DD145
:1015300096F88430013B18BF012386F88430236C71
:101540005B7833B1D6E93A32013342F10002C6E9A1
:101550003A3297F88B309BB1D7F8E03097F86800B3
:1015600023660026D7F8E430636684F868600AF0E2
:101570001DFD484900960346FB22304604F070FCEE
:10158000BAF1000F40F08880628C94F8AD301207F9
:1015900003D5626FD278022A7ED0012B7CD8E36F0C
:1015A00001209847002877D094F83480B8F1000FD4
:1015B00072D1266B94F8483096F88C208DF80D8007
:1015C000002A40F0B480FF2B96F8681003D196F8FB
:1015D00069308B4202D0FF2004F0D4FF96F88230AD
:1015E000032B00F23B81DFE813F0A500D6002001B9
:1015F0003101CB468CE7238D012043F4805386F8DC
:101600007C0023850025FFF7EBFB91E74D78002D4B
:101610008ED0238D96F88C5043F48053238504F0AC
:1016200067FF042894F8B53006D1002D14BF1B22A3
:101630001F22934228BF1346226C52789A420BD83D
:10164000D4F88450002D84D094F8AC3073B12020AD
:10165000FFF7CEFB00257CE794F83430012043F0FF
:10166000100384F8343006F0E1F9F3E74D465FE704
:101670000BB104F0D9FC94F8AD30013384F8AD30EF
:10168000238D002543F480632385AB4661E700BFCB
:10169000340A0020840A002005F02AFA4FF0010ADB
:1016A0001DB105A90220FFF757FEBBF1000F0DD0B9
:1016B000B4F80720B4F805301343B7F8802013437B
:1016C0001EBFB4F809300133A4F80930B9F1000F96
:1016D00000F0CC80B4F805300133A4F805300023C5
:1016E00084F8AD30644802F0C1FC049830B10AF0CF
:1016F000CFFA216B0022027202F094F8059B33B1FD
:10170000216B00221A720C22059802F059F8BAF1E6
:10171000000F7FF497AE238D1B063FF595AE80201A
:10172000FFF766FB238D43F0800323858CE60433AB
:10173000DBB248E794F8B430ADF80E304F48A6F865
:10174000583001F0FFFA50B1616F4FF48070FFF72D
:1017500047FB012386F87D3084F8AF301DE0A06F91
:101760000DF10D020DF10E010AF094F9606790B1D0
:1017700096F8C7307BB99DF80D302BB90380837084
:10178000606F01210BF0FAFEBDF80E10606F0BF0D8
:10179000A4FF0123E0E73A4B636796F88330626F5A
:1017A000DB0003F00801137803F0F3030B4396F812
:1017B0008410890001F004010B4323F0100313701F
:1017C000FFF7AEFB0028606F037818BF4FF01008DA
:1017D00048EA030880F8008096F88B30002B40D050
:1017E0004378002B3DD0E06C05F0D0F8002384F85E
:1017F0006830D6F8E0302366616FD6F8E430E06CEC
:10180000636604F073FB96F86910012005F050F947
:10181000626F1188A4F8801091781A4A012384F825
:10182000AE30917084F83C303AE7B6F85830A06F8B
:10183000ADF80E300DF10D020DF10E010AF02AF98E
:1018400060670028A5D140F2CD21D7E50B4801F013
:1018500079FA00289DD140F2D721CFE540F2E52169
:10186000CCE505F093F804F08BFBCCE7B4F8073037
:101870000133A4F8073035E7600A0020A80A0020E9
:10188000BE0A0020B40A0020F50E0000DD1300009F
:10189000610F0000610E00000B2808B504D940F26A
:1018A000F2310620FEF7B8FC014B33F8100008BDFA
:1018B000EC2302002DE9F04F8BB00446154602934D
:1018C000894690F869B00BF02BFB064694F8A0010E
:1018D000FFF7E2FF94F887300393064485F0010395
:1018E000B6B2059385BB94F8E431032B2CD1039B4E
:1018F0000D2B29D1B4F844324B4525D1D4F8EC3125
:10190000C4F8D831A369B4F8BC21C4F8DC31B4F808
:1019100032321344C4F8E031204604F0CDF9D4E962
:101920009223A262B4F84622A285D4F85022226201
:1019300041F64B529342A3618CBF0023012384F8EC
:101940007230022384F8E431B4F83072B4F8808045
:10195000A9EB07073FB204F50073A9EB0808002FB5
:1019600004930FFA88F86EDAD4E986234746C4E96F
:101970008A2301230493CC4B1B7803F0FF05002B33
:1019800054D005F0CBFE054600284FD0B4F8D03136
:10199000012B6DD994F8E431022B69D094F8FA51F7
:1019A000002D65D194F8A001FFF776FF94F8E4319B
:1019B00000F5C866012BB6B2D9B24CD194F88A3082
:1019C000D4F828A0032B40D1D4F8DC51554431463B
:1019D000D4F8DC0105F066FED4F8D831C4F8D8019B
:1019E000A0EB030AD4F8E0313146284603FB0AFA9B
:1019F00005F058FED4F8E851C4F8E801451B31461B
:101A0000A06905F04FFEAA44B4F8BC51D4F8E03107
:101A10004544ED1BDB432B44D4F8EC51451B05FB3F
:101A200003A50123C4F8EC0184F8FA3194F8E431F9
:101A3000DFF874A2032B00F28E81DFE813F01B00A5
:101A400016016B003701029B94E728460BF01BFC44
:101A500000EB0A05BBE7A069314605F023FEB4F8A8
:101A6000BC51D4F8EC314544ED1BC31A5D43D8E7B3
:101A70000025DBE7012100200BF005FC8046A06A71
:101A80003146404405F00EFE3146C4F8E801A06935
:101A900005F008FE07A9C4F8EC0108A805F030F825
:101AA000079B0093D4E98A01DDE9082308F0CCFA0A
:101AB000834620460AF09EFAD4F83432A66A94F897
:101AC00069001E4405F062F9D4F8E811A6F1940704
:101AD0007F1A00F523404FF47A734744A130B0FBDE
:101AE000F3F0A38DA7EB0B0730313F1A03EB410155
:101AF00094F869000AF06AFAD4F83432FB1A2230FA
:101B0000B3F5917FCAF8040058D240F2D241302098
:101B1000FEF782FBA36AD4F8DC013146184405F0D5
:101B2000C1FD3146C4F8E801A06905F0BBFDC4F869
:101B3000EC0120460AF05EFAB4F8BC31A66AD4F88B
:101B4000DC71002B40F08D80029B002B00F089801F
:101B500094F8690005F01AF93E44D4F8E871943E0F
:101B6000D4E98623F61BD4F8207280463E4494F8CC
:101B70006900B61A05F00AF94FF47A7300F2E737F4
:101B800008F52340B7FBF3F73744A130B0FBF3F07F
:101B9000D4F8E811D4F8D831D4F8E021303102FB80
:101BA0000311A38D3F1A03EB410194F869000AF079
:101BB0000DFA0123CAF8040084F8E431A6696FF431
:101BC000F4731E44D4F8EC31F61ADAF804309E426D
:101BD00028BF1E46D4E98A327F1BDF1942F100027A
:101BE0004FF00008C4E98472C4F8B86184F8008238
:101BF00004F130000BF0F3FDB4F8A811A4F8309212
:101C0000D4E98423A1EB09090FFA89F9C145C4E994
:101C10008A23C8BF022384F80882C8BF84F8083228
:101C2000039B06440D2BC4F80462029B00F09680CF
:101C3000002B40F0948094F8E431002B00F0AD804C
:101C4000A169D4F8EC3104F50070C91A0BF0C2FA9E
:101C500080B2002800F0A180149B03B118800120FD
:101C6000ABE0D4F8E801374492E7D4F8EC21A3695B
:101C7000D4F8E001D4F8D8119B1A5F43B4F8BC3112
:101C80009844C3439844D4F8E831303301FB00331F
:101C9000A18D94F8690002FB083301EB43010AF0BF
:101CA00095F9CAF8040089E7EC0A0020A369D4F882
:101CB000EC219B1A5F4394F88630252B03D094F8CF
:101CC0008730252B0AD1B4F84432A9EB03031A0458
:101CD00004D494F84732002B18BF9B46049B63B38F
:101CE000B4F8BC314BBBD4E98623D4E988018242E5
:101CF0008B4102D340F2265109E794F8690005F0C0
:101D000045F8D4F820220646D4E98601A2F19403CE
:101D10001B1A3B4494F86900049305F037F8049BC0
:101D200000F2E7374FF47A7206F52340B7FBF2F77B
:101D30001F44A130B0FBF2F03F1AB4F8BC11D4F844
:101D4000EC31414459433031490058460AF03EF9DC
:101D50001B4B586032E740F23E51D8E6EBB1B4F885
:101D6000D01121B3B4F8D22194F8D431A4F8D221FF
:101D700002FB0333994202F101000EDD94F80832B0
:101D80005BB1002384F80832A4F8D20101F0CCFD45
:101D900000F00700013084F8D40194F8FB0104F549
:101DA000007107F02BFA20B940F28751AFE60A46DE
:101DB000DAE7059B84F8F83100200BB0BDE8F08F1E
:101DC000EC0A00202DE9F04104460D46164690F835
:101DD000F03003F0FF071BB10C273846BDE8F08157
:101DE0000146454807F0BEF820288046F4D0582226
:101DF000394604F1C80008F0D7FD84F8C880C4F85B
:101E0000CC50FF2384F8F03035B101F0A5FD00F08F
:101E10000700013085F8D40102234FF00008A4F830
:101E2000003184F8F88005F08FFC00F19E05204613
:101E30000CF021F9ADB2014670B30BF071F800F56A
:101E4000CD6189B2304605F02DFC3044C4F8FC0069
:101E50000CF0EAFB281841F10001C4E9420101201D
:101E600084F8D000A4F826800CF0C3F9E53E361AB9
:101E7000C4F8D4604FF0FF326FF00043C4E944234C
:101E800094F8C80004F1F80107F0B8F948BB4FF422
:101E9000E5713020FEF7C0F920460CF010F8DFF8AD
:101EA0005C80E530C4F8FC00B8F8080048B1E08C6C
:101EB00038B101F051FDB8F80830B0FBF3F202FB85
:101EC000130005440CF0B0FB2D1841F10001C4E9EA
:101ED0004251002ECED0751941F10001C4E94451A0
:101EE000CEE7D4E942230021C4E93823C4E93A23E8
:101EF00020460CF0DDF870E79BC20000EC0A0020E1
:101F0000F0B5002385B0CDE9003301238DF806300C
:101F10006846FEF7C1FD70B11B4E0123B372002766
:101F2000CDE9027702A8FEF7B7FD0546A8B1002368
:101F3000B37205B0F0BD00980AF069FAE8E790F8CE
:101F4000FB0107F03FFF94F8FB0184F8E45107F030
:101F50003DF8202384F8FB31E2E7029B002BE1D01F
:101F600093F8FB21202ADDD018884FF6FF739842A2
:101F7000DDD02946FEF756FD04460028DFD14FF498
:101F80009A713020FEF748F9EC0A0020054B002238
:101F90000121DA7219709A7242F210721A81FFF7F7
:101FA000AFBF00BFEC0A0020014BD872704700BFE2
:101FB000EC0A002008B504F0A1FA044BDA6882426A
:101FC0002ABF987A002080F0010008BDEC0A0020AA
:101FD0002DE9F7430446062900F2C480DFE801F04A
:101FE000047A67777E83BD00D0E98623D0E9880133
:101FF00082428B4149D294F8FA31002B45D094F8B3
:10200000E431032B41D194F869900AF089FF064628
:1020100094F8A001FFF740FCD4E98623D4F820729D
:10202000D4F8B851804606444846BF1A04F0A6FECC
:102030002D1A484604F0AAFE00F523404FF47A73A7
:10204000A130B0FBF3F02B1AA3F17402B6B2520820
:10205000D43B08F5C8689D3273431FFA88F8B3FB78
:10206000F8F360335908A2EB53039F4202D30A44AA
:10207000974201D905F058FBA069314605F012FBE3
:102080000023C4F8EC0184F8FA31384B9B7A03F052
:10209000FF0263B9B4F8AC11009201232046FFF7A8
:1020A00009FC38B14FF4DA613020FEF7B5F80423AB
:1020B00084F8E43104F01CFC06F0F8FDB4F880204C
:1020C000A4F8F6210023A4F8323284F8F93103B0E1
:1020D000BDE8F083032380F8E431F8E70CF0F4F96D
:1020E000C4E98801F3E78569D0F8EC31DFF87C803A
:1020F0009D4288BFED1A98F80B3098BF00251BB998
:10210000036B9D4228BF1D4604F13000D4F8B8711E
:102110000BF065FB0744022007F0D8FCED1B25EA15
:10212000E575854228BF05460221284607F022FDB5
:1021300000B92F4440F2D312394620460BF099FBE8
:10214000D4F8B831C8F80C00A069184407F080FC36
:102150000028BCD140F27E31A6E703B0BDE8F043D1
:1021600009F048BF40F284719EE700BFEC0A0020EE
:102170002DE9F84306460C4615467ABB04F0BEF935
:10218000D4E94289074684F8D05084F8F050012100
:10219000D4F8CC0001F03CF8D4F8CC00C0E9868932
:1021A00094F8C83080F8FB31C0E98A89C0F83472ED
:1021B0000AF025F820B14FF4E2613020FEF72CF848
:1021C00004F096FB06F072FD074994F8C800324609
:1021D00005F01CFC28B940F29771EEE740F2AE71B1
:1021E000EBE7BDE8F88300BF1DC00000014B18817C
:1021F000704700BFEC0A0020F0B5070CA7F5AA4213
:10220000144B543A012A03EA90231FD927F40040C3
:1022100042F6AA22801A18BF012000221621164673
:102220001F2487EA060562EA0505013510D0DD03A3
:10223000ADB245EA5606E503ADB2013945EA5202B0
:102240004FEA53034FEA5404EBD1F0BD0020E4E71A
:102250000020FAE7E0FF3F0010B501210020FEF763
:10226000E1FB044670B90121FEF79EFB044620B94C
:1022700040F24D313920FDF7CFFF034B93F90610A3
:102280000BF0E5FD204610BDFC0A002008B50AF061
:1022900054FF00F0C9FE00F0C5FB0BF04DFA01F051
:1022A00057F801F053FF01F06BF8094B00221B2196
:1022B0004FF4A47098801A805980DA71054B064853
:1022C00018605A829A7599805A749A8208BD00BF24
:1022D000FC0A0020240F002003021B00044B41F6DF
:1022E0004C52C3E902221B221A74FFF7CFBF00BF72
:1022F000240F00202DE9FF41354DAB68044640F81E
:10230000303F0AF0BBF8064600F07CFB2B7C84F8DB
:102310003830304B668710F0200F1B681DBFAA882D
:102320006988A4F85A101B2208BFA4F85A20A4F800
:102330005C201BB194F9701020889847AE7CEF7C2C
:10234000B5F8148041F64C53A36116B900F060FB58
:10235000064687BB00F05CFB074676B368B303A96B
:1023600020468DF80C608DF80D70ADF80E800AF0E7
:1023700086FF01236A88E385AB886978019103337E
:102380002978009103329BB292B204F1140104F156
:102390001000FEF7B9FB236913B94FF4BE6114E0D6
:1023A000636913B940F2F1510FE0002004B0BDE8B9
:1023B000F0810920FAE7002ED1D120880021FEF714
:1023C00047FB0028F5D040F2D3513920FDF724FF18
:1023D000240F00204C000020F7B505460E460BF0F8
:1023E00069FD002874D028460BF045FE40B1B6F8D0
:1023F0000130013B7F2B03D91224204603B0F0BDEE
:1024000028460BF03CFE08B90C24F6E728460AF0F3
:10241000EAF80028F8D128460BF00AFD0446002807
:10242000F2D1284602F044FB0028E5D0B6F801704E
:10243000F17842F2107328465F430BF009FE2846FC
:102440000BF011FE014658B93A462846FFF7BAFC90
:1024500004460028D1D041F615213920FDF7DCFED5
:1024600021460DF10600FEF767FA064670B32146D5
:1024700000F0CEFEBDF806303380284631460BF022
:1024800008FE28460BF001FEA0B9296A28460BF089
:10249000FEFD01463046FFF72DFF04460028ACD173
:1024A0003A4631462846FFF78DFC044620B141F6F6
:1024B0003821D2E70121EDE7064B9B68002B9CD029
:1024C000024606F58D713046984796E70D2494E74D
:1024D000422492E7FC0A0020034B5A8802801B78B2
:1024E00083700020704700BF240F002037B5837829
:1024F0001A2B054609D8042B05D9012202FA03F349
:10250000134A134205D112241AE0292B01D03B2B88
:10251000F9D12888B0F5706FF5D269460AF04DFE02
:1025200088B9019B93F8182102F0FF046AB9AA78D0
:1025300083F81921FF2283F8182168460BF0D7F899
:10254000204603B030BD0224FAE70C24F8E700BFB0
:102550002000380438B504784278857804F0010307
:1025600052EA030104F0020401D1112038BDBCB9C4
:10257000002DFAD0002B08BF144601E000242546A8
:1025800020460AF06FF80028EFD028460AF06AF8D3
:102590000028EAD0054B00209C74DD749882E5E7A2
:1025A000002BEBD114461D46EAE700BF240F0020A4
:1025B00013B5008869460AF000FE18B102242046CF
:1025C00002B010BD019A92F8E431DBB292F8A82073
:1025D000002AF3D113F0FB0FF0D0019890F82A31C4
:1025E0000BB13A24EBE790F8D23003F0FF04002B54
:1025F000F7D190F8C9309B0706D1FF2380F82A3124
:1026000068460BF074F8DAE70249CA300BF0BCF800
:10261000D5E700BF2FDD0000F0B50778EF2F85B0BC
:1026200004460D4603D91225284605B0F0BDB0F882
:102630000130ADF80C309DF90C209DF80C30002ACB
:10264000F1DB9DF80D209107EDD1DA063FD49E060F
:1026500003F0030238D5002AE5D11807E3D46378E4
:10266000190711D42179E278E07942EA01226179EF
:1026700042EA0142A17941EA0021207A41EA00417F
:102680008A42D0D81F2ACED9627A013A062ACAD8FD
:10269000A27A032AC7D813F0040102D1023A012A10
:1026A00003D8E27A012ABED811B9A27C032ABAD88B
:1026B00013F01001227D19D0012AB4D1227E012A03
:1026C000B1D8B1B91125AFE7032AC6D1ABE713F0F2
:1026D000600FA8D103F00F0203F00703052BBED053
:1026E000931E012BBBD9002A9DD1B8E7022AE5D160
:1026F00099E7DA071FD46378227D03F018010829CF
:102700001ED1022ADED11B0709D4E279A37943EA5C
:102710000223227A43EA0243B3F5804FD2D8BFB2F4
:1027200001213846FEF77EF9064678B109F05BFFD5
:10273000B8B10C2578E700F027F90028DBD1C1E714
:10274000022AE0D0227F002ADDD0BBE701213846F3
:10275000FEF72AF9064650B3164B93F906100BF014
:1027600076FB30460BF07CFC21462870E074304646
:102770000BF0C1FBE37E0546002B3FF455AF00286C
:102780007FF452AF316B02466846FEF781FA306B38
:102790002A46012109F05AFB316B68460422FEF7F4
:1027A00077FA306B2A46294609F050FB3CE70725AB
:1027B0003AE700BFFC0A002070B50579042D8AB005
:1027C00003465CD84488B4F5804F58D82D48465D00
:1027D000284400214279857AC07BADF8001042F090
:1027E000100242EA460242EA850242EAC00202F0D0
:1027F0001F028DF80020BDF80020ADF809201A88CE
:102800008DF80B208DF80E40120A240A8DF80D1059
:102810008DF810108DF80C208DF80F405A7B8DF834
:1028200011205A798DF812209A79D3F807008DF883
:102830001320B3F80B209B7B8DF81A307F238DF883
:102840001B3001238DF8081005908DF81D10ADF890
:1028500018208DF81C308DF81E3002A88DF81F103E
:102860008DF820108DF823108DF824108DF821108C
:102870008DF822106946FFF7CFFE0AB070BD122016
:10288000FBE700BF042402000278034672B14278DD
:1028900062B142881A2A09D982881A2A06D9044ABA
:1028A000006810609B88938000207047122070475A
:1028B000240F0020024B02689A600020704700BF7E
:1028C000240F00200378A3F10A02112A9DBF024AB7
:1028D0000020137412207047240F002008B502F066
:1028E000CFF8FFF753FBBDE80840014802F0B2B84B
:1028F000080B002010B50B4C012384F8023102F0C4
:10290000C7F80BF036FD0AF016FC04F2031120465E
:10291000FEF7C4FB002009F038FABDE8104000F0D3
:1029200035BF00BF080B002010B5064C064904F562
:1029300002700AF0BAFA04F503700449BDE81040C9
:102940000AF0B3BA080B0020500000205800002005
:1029500010B5094C094904F502700AF0A6FA04F50D
:10296000037007490AF0A1FA04F504700549BDE8AF
:1029700010400AF09ABA00BF080B0020680000203F
:102980007000002060000020014B93F802017047A6
:10299000080B002010B5074C00F0D4FED4F8080254
:1029A0000AF07BFAFFF79AFC00F0EEFF012384F8AF
:1029B000143210BD080B0020014B93F8140270472D
:1029C000080B002010B5074CD4F80C020AF065FA89
:1029D000D4F810020AF061FAFFF758FC002384F8DB
:1029E000143210BD080B0020C2080549012300F075
:1029F000070003FA00F08B5C18438854704700BF4F
:102A000010000020014BD3E90001704710000020A6
:102A1000034B1868C0F30020400040F001007047ED
:102A20001000002008B504F085FE084A002332F8A3
:102A30002310814205D302EB83039B78044A137071
:102A400008BD01330C2BF2D10023F7E71824020054
:102A50001D0D002010B544682388A4F8683194F84F
:102A6000683084F86711012B06D0022B04D04FF494
:102A700050710620FDF7D0FB84F86A3194F8693074
:102A8000012B01D0022BF2D184F86B31044904F5FB
:102A9000AF700AF079FE002384F8243110BD00BF26
:102AA00025CF0000406808490388A0F85A3190F803
:102AB000603080F85C3190F8613080F85D3100F270
:102AC00051100AF05BBE00BF3BCF00002DE9F04F74
:102AD000054685B008460C460AF0E8FD0646204645
:102AE0000AF0DEFD804620460AF0DCFD83462046E3
:102AF0000AF0DAFD6C6894F8873094F886A0232BEE
:102B000007462FD104F18709002E49D00BF0070B9F
:102B100058460AF061FA78B394F8683098422BD09E
:102B200094F82421012A0CBF94F8262194F86420FB
:102B30001BEA020F34D0BAF1210F1DD094F86120A6
:102B40001BEA020F18D1461EF6B2032E05D8013B30
:102B5000554ADBB2032B915D0BD940F21F210620B1
:102B6000FDF75AFBBAF1210F40F09A8004F1860973
:102B7000CAE7D35C8B4213D808F0070108460AF075
:102B80002BFAC0B394F86930834234D094F82431DE
:102B9000012B0CBF94F8273194F8653019422AD1E3
:102BA00094F82431012B15D11E212846FFF752FF3E
:102BB000BAF1210F12D16B68182283F8092109227A
:102BC00083F8862093F8C230002B3AD140F2B3212B
:102BD0007E20C5E7002384F82431E9E70023284656
:102BE00089F800300AF087FE1821284605B0BDE8B4
:102BF000F04F0AF0A8BE03AB009320463B465A466E
:102C00000AF0F5F96B68044600BB93F82421012A09
:102C100019D101462846FFF71DFF89F800406B686F
:102C200003F18702914502D1002283F887206B6867
:102C300003F1870291454FF000042ED128460AF097
:102C40005AFE00202DE083F82401E8E7B3F8800065
:102C5000A3F84472C0430744BFB247F6FD729742DF
:102C600006D9282283F8A920284600F0F3FFDEE7E2
:102C700093F887200D2A02D00A3A012A01D82A2285
:102C8000F0E79DF80C2083F846229DF80D2083F88C
:102C90004722252389F80030C9E783F8C240D0E7EE
:102CA000022005B0BDE8F08F48240200044B00224A
:102CB00083F822204FF6FF729A84DA841A857047CF
:102CC0001E0D0020054B9A8C824201BF002283F822
:102CD00022204FF6FF729A84704700BF1E0D00201D
:102CE000014BD884704700BF1E0D0020094A0346DF
:102CF000908C4FF6FF71884206D192F8221001297C
:102D000005D01A600120704700201860704700202D
:102D1000704700BF1E0D0020064B93F82220012AA9
:102D20001FBF0120DA8C83F822009A8408BF00209C
:102D3000704700BF1E0D0020014B1885704700BF73
:102D40001E0D0020064B0246198D988C884205D135
:102D500093F8220018B113600120704700207047DB
:102D60001E0D0020094B998C1A8D914201D0002034
:102D700070474FF6FF729A8493F82220002AF6D00B
:102D8000002283F822200120704700BF1E0D002082
:102D9000054B998C1A8D914203BF93F82200B0FA2B
:102DA00080F04009012070471E0D002050B90A4AEA
:102DB0001346012003F8010B0868C2F801008A8855
:102DC0009A807047012805D1034B0A689A608A8867
:102DD000D8719A81704700BF480D002048B90A4B4E
:102DE000187880B1D3F80120B3F805300A608B80E1
:102DF0007047012806D1044BD87920B19A680A603F
:102E00009B89F4E700207047480D002020B9054B4E
:102E1000187800F00100704701280ABF014B00201C
:102E2000D879F6E7480D0020F7B500228B888DF899
:102E30000600ADF8043008680C4B8DF80720019DA2
:102E40001C78014603F5AC73D0B2844201D8082047
:102E500009E0D3E90076AE4208BF8F4203F10803D0
:102E600002F10102F0D103B0F0BD00BF580D002007
:102E700030B5094B01465C78002203F58173D0B26E
:102E8000844201D8082005E013F8015B8D4202F16D
:102E90000102F4D130BD00BF580D0020F0B5254D22
:102EA00095F8984189B0224605F29911684607F0D5
:102EB000E7FD214668460AF05FF90446B8B300EB27
:102EC0004001C9B202A8FDF727FB601E95F8A16179
:102ED000C0B2012495F8982105E0731CB3FBF2F110
:102EE00002FB1133DEB206F120030DEB030111F8F2
:102EF000203C002BF1D100EB400220326A4406EB6B
:102F000046032B4412F8187C83F8A27112F8177C40
:102F100012F8162C83F8A37183F8A42101F8204C31
:102F20000138AB19C0B2FF2883F89941D2D109B05A
:102F3000F0BD00BF580D002070B5064688B00C46A5
:102F4000002A4FD02A4A92F8A131D01890F899114E
:102F500021B94FF480712820FDF75EF903EB43019E
:102F60001144013391F8A251E57091F8A35191F801
:102F7000A41161710021257180F8991192F89811BE
:102F8000B3FBF1F001FB103382F8A13192F8C231AA
:102F900023B9184902F5DD700AF0F3FB657905F0F5
:102FA0003F0545F0400565710D220021684607F098
:102FB000FBFCE3788DF80F3023798DF80E3004AAEE
:102FC0000423694630468DF80D5007F08FFA9DF8BE
:102FD0001F3023709DF81E3063709DF81D30A37064
:102FE00008B070BD03216018FDF796FAD6E700BF60
:102FF000580D00209D2E0000044B5A78824286BF57
:103000001B1893F84A010020704700BF580D00209C
:10301000044B5A78824286BF1B1893F84201002065
:10302000704700BF580D0020064B00224FF461711D
:103030001A8083F8C32183F8C421A3F8C61183F84A
:10304000C2217047580D0020014B83F8C40170471E
:10305000580D0020014BB3F8C6017047580D0020F1
:1030600030B50A4B5C7884420ED9184490F80201BE
:103070002B3003EBC004A5790D7053F830001060BD
:10308000A3889380012030BD0020FCE7580D00206C
:103090000246074810B590F8C34124B1417821B1E8
:1030A000023002F053FE204610BD0C46FBE700BF85
:1030B000580D00202DE9F74F2F4C9A466378834234
:1030C0008046894656D9231893F8425185F0010568
:1030D000F9B193F84A31E3B945F002070135BAF185
:1030E000000F18D1FA070AD5062101FB084104EBAD
:1030F0000810524601F585718230FFF71DFFBB07AE
:1031000034D504EB0810524649460230FFF714FF4D
:103110002CE02F46E3E794F8A1614FF0010B002D5E
:10312000E0D0A319019393F8991199B90092DAB1FB
:1031300000F0FAFB06EB46012144019B81F8A20155
:103140004FEA102C009A81F8A3C1000C81F8A40169
:1031500083F899B194F898310136B6FBF3F103FB8B
:103160001166F6B2013DDAE747F00407384603B0CE
:10317000BDE8F08F0027F9E7580D0020074B5A787B
:10318000824209D91A1892F842212AB9062202FB72
:10319000003000F58570704700207047580D002002
:1031A000064B5A78824281BF1B1893F83A01B0FA55
:1031B00080F0400998BF0020704700BF580D0020E4
:1031C00030B50024A0F84040B0F8444042F21075F9
:1031D0004C43B4FBF2F4A0F84440541E05FB0343F7
:1031E000B3FBF2F3A0F84230084BB3FBF2F3013328
:1031F000A0F84830838F05FB0344436BB4FBF2F423
:1032000059438463B1FBF2F2426330BD005A62025B
:1032100070B504460D4651BB4FF41C7207F0C4FB59
:10322000012384F88E306FF0360384F8D9300423FC
:1032300084F8DA306FF03B0384F8DB306F2384F8D6
:10324000DC306FF03C0384F8DD30062384F8DF3097
:103250002B2384F8D830FE2384F80E317F2384F8A2
:103260008530202384F8DE5084F8FB3170BD0129BD
:1032700022D10023A0F8BC3180F8B331144B82690D
:103280001344B3FBF2F3C0F8B03040F6B833A0F803
:10329000B4301146438C7830FFF792FF07F03EFAC6
:1032A00030B1E069FEF7A8FF10B984F89F51DDE75F
:1032B000002384F89F31D9E70229D7D1B0F85232E0
:1032C000D0F84C228169BDE870407830FFF778BFB4
:1032D0007FC3C901034B80F870101B680BB10088D5
:1032E0001847704778000020074B93F900301844C6
:1032F000142804DC10F17F0F03DB40B27047142068
:1033000070476FF07E007047200F002007B57F23C5
:103310000DF107008DF8073003F0BEFB9DF9073073
:1033200068B10A4A5078404243FA80F0142808DC19
:1033300010F17F0F07DB40B203B05DF804FB1846C5
:10334000FAE71420F8E76FF07E00F5E7200F002081
:10335000024B00221A705A70704700BF200F0020E5
:10336000054BFF221A70054A01681160017911713D
:1033700000221A70704700BF220F002018000020A2
:1033800007B5064B186800901B798DF80430684625
:10339000FFF7E6FF03B05DF804FB00BF564A0200EA
:1033A0000346407898B1DB783C2B05D8084AD35CBB
:1033B0001B1A58425841704703F11602D2B2042A30
:1033C00004D8034A134413F8AD3CF1E701207047D9
:1033D0004C2402003C2908B5C17003D80B4B5B5C40
:1033E000437008BD01F11603DBB2042B04D8074B70
:1033F000194411F8AD3CF3E7FF2904D040F25941DC
:103400002A20FCF709FF0123EAE700BF4C24020051
:103410002DE9F04385B0894602A91446984609F083
:10342000CCFE0546002839D1039E34B9012486F824
:103430008D40204605B0BDE8F08337692146384607
:1034400008F0C7FA014658B3174B5B88A34229D34B
:1034500001AA384608F016FC96F88D300198002B2A
:103460000CBF494602210AF089F8019822464146DC
:10347000033007F005FB2146384608F0EFFA044612
:1034800018B97D212B20FCF7C7FE02A80AF02FF9FE
:10349000039BA3F8AA5186F88D50CAE70124C8E718
:1034A0000446C6E72C46C4E7240F0020024B987D53
:1034B000C04300F001007047240F002083230B70ED
:1034C000014B1B78CB7070473C0F00202DE9F74370
:1034D0004769814638460D4608F0C6FB014618B9D3
:1034E000FC211020FCF798FE01AA384608F0CAFB20
:1034F000064610B94FF48071F3E7019BB9F800005C
:1035000003F103081D4B1B687BB9B9F80030AB8091
:10351000002301986B72EE800AF038F801280ED073
:1035200002280CD04FF48D71DBE7324641469847B4
:1035300004460028E9D1204603B0BDE8F083287294
:10354000384608F0A7FB044610B940F22311C8E73B
:10355000FB2E02D94FF49671C3E7286810B940F2E8
:103560002D11BEE73246414607F08AFA384608F088
:10357000D9FA0028DFD140F23111B2E780000020F3
:103580002DE9F347DFF85C8182468946052700254F
:10359000D9F8103053B11B7A1BB97E211020FCF7EB
:1035A0003BFED9F81040B4B9002070E0D9F80440CF
:1035B000237A012BF8D0EFF3108372B6D9F80420E8
:1035C0001268C9F8042003B962B6C9F81040237A1A
:1035D0000BB9A421E2E7267AF6B22772731E0B2BF1
:1035E0006DD8DFE803F069061C33666C3C6C6C6CCC
:1035F0006C57636813B94FF4D471CFE72046514636
:1036000098470420EFF3108372B6227A052AD1B2CC
:103610005FD12572C9F81050ABB962B613E0636888
:1036200013B940F2B111B9E7514620469847034615
:10363000C3F30723012BADF80400C0B242D0022B24
:10364000E0D1C9F810500028A2D020E0636813B977
:1036500040F2B911A2E7204698470020D2E76368FC
:103660000BB9B3219AE70B228AF800201988186950
:10367000AAF80310012200248AF802208AF8052003
:103680008AF8064008F04EFAC9F81040042002B04B
:10369000BDE8F087606810B940F2E1117EE7D8F824
:1036A000003051469847034660B1C9F810500220D7
:1036B000EDE74FF4F97171E740F2F5116EE74FF461
:1036C000FC716BE726720028E1D1002B7FF460AF1C
:1036D0006AE711B940F2192160E7002B7FF458AF77
:1036E00062B655E77C00002070B5144C1426231DEB
:1036F00032460021184607F057F903460125257484
:1037000000210433324604F11800C4E9013307F004
:103710004BF984F824500A4A04F11C03C4E9063327
:103720000023E362236384F83430C4F83530C4F8EE
:10373000393084F83D30136070BD00BF3C0F00206D
:103740008000002010B5084C2378FF2B04D04FF4E4
:103750009D711020FCF760FD06F010FF2070BDE8A1
:103760001040FFF7C1BF00BF1D00002010B5034C83
:10377000207806F01FFFFF23237010BD1D000020DE
:10378000014B187806F026BF1D000020014B024AAD
:103790001A6070477C000020CD34000010B5064947
:1037A0000446FFF7EDFE28B920460449BDE8104065
:1037B000FFF7E6BE10BD00BF540F0020400F0020F1
:1037C00010B51346027A22B140F295211020FCF781
:1037D00023FD0A46BDE810400146014809F0AEBF8E
:1037E000400F0020044890F834301BB903492C30B6
:1037F00009F0C1BF704700BF3C0F00202FD7000069
:103800000346064890F83E203AB190F83D2022B990
:1038100000F8353B024909F0AEBF70473C0F00206D
:10382000BD34000010B50A46037A23B140F29D2151
:103830001020FCF7F1FC0146BDE8104001480723C9
:1038400009F07CBF540F00201346027A0AB10372BC
:1038500070470A460146014809F070BF400F00203A
:103860001B234FF01B128384038482618382C26016
:10387000038539B94FF4A473034AC3844384C261F6
:10388000C3820261704700BF480148010346F0B49B
:10389000B3F85420B3F84840B3F84460DF8FB3F86E
:1038A0004250944228BF14460846B3F84C20B3F85F
:1038B0005610DC878A4228BF0A46B3F84610A3F8A0
:1038C0004220914238BF1146A64238BF2646A74241
:1038D000A3F84460A3F846101FD1AA1A18BF01220A
:1038E000B3F84A50B3F85040B3F852709E8FB3F813
:1038F0004010A54228BF2546B3F84E409D87BC42E4
:1039000028BF3C46AE42A3F8404002D1A14200D1BC
:103910002AB1F0BC034909F037BF0122E0E7F0BC4F
:10392000704700BF8FD70000094AD2E90003434027
:1039300083EAB01181EA43214FEAF3435360054B18
:10394000116058434FEAF06000EB8000704700BF01
:103950007C0F0020BB79379E094AD2E9000343401F
:1039600083EAB01181EA43214FEAF3435360054BE8
:10397000116058434FEAF06000EB8000704700BFD1
:1039800020000020BB79379E10B50A4C0948082159
:10399000FCF7C2FDD4E900231343F7D0064CFFF730
:1039A000DBFF2060FFF7D8FF236860600343F6D099
:1039B00010BD00BF200000207C0F0020174B184ACC
:1039C0009A60184A5A60184A1A60184A9A62184A45
:1039D000DA62184ADA60184A9A61184A1A63184A71
:1039E0001A62184ADA64184A9A64184A5A62184BDA
:1039F000184A9A60184A5A62184ADA62184A1A61D2
:103A0000184A5A61184A9A61184A1A63184A9A64FD
:103A1000184ADA64184A9A63704700BF840000208D
:103A2000FDD9000033DA0000ABDA000073DB0000E0
:103A3000C7DB00007D3D0000DDDB0000D13F000062
:103A4000613E0000ABDC0000C7DC0000A93E0000C6
:103A50008C0100201FDA00007DDC0000FFDB00008D
:103A6000A3DB000023DC0000013E00004DDD000070
:103A7000F5DC0000E7DC000063DC0000054B064AD3
:103A80009A65064A1A66064B064A9A65064ADA6538
:103A9000704700BF840000206FD00000CD2A0000D6
:103AA0008C010020BFCF000017D10000252A70B57F
:103AB00005460C4618D8012A19D9023A232A16D8E5
:103AC000DFE802F01A15252424331535152439446E
:103AD0004815154D242467676D74151515151515B2
:103AE0001515151515808990FF2A00F0828040F287
:103AF00066415120FCF790FB02784368012A02D10D
:103B000093F8103101E093F81931237170BD4168C9
:103B1000204601F5E37109F0A2FD6B682046D3F859
:103B20000411BDE8704009F09CBD4368E8E7BDE8BA
:103B3000704000F017BA0E230B7159234B7100230C
:103B40008B71F323CB7110230B72DFE7436893F87B
:103B50000A31DAE7BDE87040084600F0F3B90378AF
:103B6000466873B996F810315BB196F80D1120468E
:103B700009F0ABFD96F80C112046BDE8704009F045
:103B8000A8BD96F80B11204609F09FFD96F80A1182
:103B9000F2E741682046BDE8704009F0E5BE4368A1
:103BA00093F82621227193F8273109E0436893F8AE
:103BB0002421012AF4D093F864200A7193F8653027
:103BC0006371A3E7104B1B68002B9FD00246232094
:103BD000BDE8704018470C4B1B68002B96D002467E
:103BE0002420F5E7084B1B68002B8FD002462520C8
:103BF000EEE74368204693F83F22D3F84012BDE831
:103C0000704009F0C7BC00BF940200203C2803D8D4
:103C1000064B53F82000704700F11603DBB2042B6B
:103C200001D8AD38F4E70020704700BF84000020C1
:103C30003C2803D8064B53F82000704700F11603C8
:103C4000DBB2042B01D8AD38F4E70020704700BF89
:103C50008C010020F7B545682E6904464FF6FF77C2
:103C60000DF102010DF101023046ADF8027007F0CE
:103C700011FF01A9304607F030FF40B1019808F06C
:103C800007F8616800220272FFF7CCFDE8E70449FB
:103C900005F1A00003B0BDE8F04009F06FBD00BF22
:103CA00099D90000F0B5044685B00D46FF2600F80E
:103CB000896C10F88A3CF3B1184F3B781BB148214E
:103CC0001F20FCF7A9FA0C21381DFCF725FC3E70DB
:103CD000002304F8893C2A46072302F8033BD4F862
:103CE0000930C5F80330D4F80D305360D4F81130E2
:103CF000936005B0F0BD01A80C21FCF70DFCA4F504
:103D00001673039AC3F8042101AB03CB44F8920C59
:103D100044F88E1C04F88A6CDAE700BF840F002098
:103D200010B5054C23782BB90C21201DFCF7F4FBB2
:103D3000FF23237010BD00BF840F0020024690F8BF
:103D4000CE31BBB990F8CF3103F0FF010BB10020A9
:103D50007047094B18780028F9D01970D968C2F853
:103D60000411043303CBC2F8C601C2F8CA11FF2301
:103D700082F8CE3101207047840F002070B5426870
:103D800092F8873004460D463BB1132B05D0113B0A
:103D90000B2B94BF0820012070BD92F8C83013B9D6
:103DA000204609F09EFD6168284601F5DF7109F0A3
:103DB0004CFC2846666809F04FFC6168C6F80001B3
:103DC0000B88A1F86132284601F2632109F035FC25
:103DD0006168284601F26B2109F034FC6368002514
:103DE00083F8CE516068054900F5167009F0C3FCF0
:103DF0006368152283F887202846CDE7A53C00009C
:103E000038B5436893F887201C2A044604D04FF441
:103E1000DE711F20FCF700FA93F8C8101D880022FD
:103E200083F8C72003F5C97069B10B4983F8C8202E
:103E3000A3F89C5183F89B2109F09DFC6368002244
:103E400083F8872038BD012283F89B11A3F89C5189
:103E5000024983F89E21EFE75FDB000051DB0000A1
:103E600038B54568AB6F13F0010417D14A680C4BA5
:103E7000896813400B4AC5F8D830C3F3076343F091
:103E800008030A4085F8DB30C5F8DC2009F029FD7D
:103E9000AB6F43F00103AB67204638BD0120FCE760
:103EA0002FC904F76FDB000610B5406890F8863024
:103EB000042B2BD14A68174B8C681340C0F8D830BC
:103EC000154AC3F3076343F00803224080F8DB3050
:103ED0000023C0F8DC2080F8C23080F8863090F8EB
:103EE000742102F0FF049AB90388A0F8763180F8B3
:103EF00075414B68C0F878318B68C0F87C31074950
:103F000000F5B67009F037FC204610BD0124FBE730
:103F10001C46F9E72FC904F76FDB000641DC0000FF
:103F2000406890F8743153B90388A0F876311A23A9
:103F300080F87531024900F5B67009F01CBC704775
:103F400041DC000010B50446FEF75CFD034A044B5B
:103F500002400B406260A36010BD00BF2FC904F790
:103F60006FDB000637B50C464568FEF74BFD084A87
:103F7000084B0A4095F8D8100192034000930B407B
:103F80008DF800306B4603CB6060A16003B030BD9C
:103F90006FDB00062FC904F7DB0410B5144604D507
:103FA000037D13B10023436310BD436B01334363AF
:103FB00009F0ADFED0E90D239A42F5D30023436307
:103FC00002492046BDE8104009F0DEBB9DDC000040
:103FD00070B5446894F88630012B06460D4602D031
:103FE000A36F9A073ED494F8C9309B0719D428468A
:103FF00009F039FB84F8D300B5F80530A4F8D430C3
:10400000B5F80730A4F8D63094F8C93043F002026E
:10401000D80784F8C9200FD5134904F1CA0009F064
:10402000B3FB94F8C930D90711D4A36F9A0708D508
:1040300055214020FCF7F0F894F82A31002BEBD101
:10404000EFE743F00203A367304609F04AFC94F817
:104050008630012B4FF0000003D184F8860084F8ED
:10406000C20070BD0120FCE72FDD000070B545687F
:104070000446FFF74BF9054B85F885001B680146A0
:104080001BB12046BDE87040184770BD9C0200205F
:10409000024B1B6803B11847704700BF980200200D
:1040A000F0B5204E054630780024147080B1431ED0
:1040B0007768DBB2181B01280BDC07EBC40057F84C
:1040C00034604068884208BFAE4212D114700120AB
:1040D000F0BD1819461007EBC60E57F836C0DEF8CB
:1040E0000460AC45C0F347008E412CBF0346044634
:1040F000E0E7B54271EB000002D214700020E7E760
:1041000007EBC30057F833404068884208BFAC4211
:1041100001D11370DBE7A542814128BF0133137041
:10412000ECE700BFA40F002010F0070208B503D091
:1041300063214820FCF770F818B1034B19725860DE
:104140001A70C80008BD00BFA40F0020014B002258
:104150001A707047A40F0020014B187A704700BFF7
:10416000A40F00202DE9D34309F012FE0DF1070240
:1041700007460E46FFF794FF98B9114C2278237A30
:1041800093420ED0616813466FF0604E9DF80700B1
:10419000984209D301EBC003C3E9007601322270D3
:1041A000012002B0BDE8D08303EB0E0001EBC0009C
:1041B000D0E90089013BC0E90289DBB2E6E700BF34
:1041C000A40F002037B509F0E3FD0DF10702FFF75A
:1041D00067FF0446A0B10C4A9DF8070013785568A4
:1041E000013BDBB213701A1AD2B2411CD2008342D7
:1041F00038BF002205EBC10105EBC00006F08EFBC5
:10420000204603B030BD00BFA40F00200A46822321
:1042100002F8033B04480368C1F803304368536065
:1042200083689360704700BFAD0F002002481622DC
:10423000002106F0B9BB00BFAD0F002082B002AB79
:1042400003E903000B48437D93B1530610D50A8858
:104250000280D1F82022B1F880304260D1F82422C7
:1042600005498260438002220C3002B0FFF7ECBAAD
:1042700002B07047AD0F00200D42000038B5074D69
:10428000044600F15101286809F0EEF894F8501046
:104290002868BDE8384009F0F5B800BFC40F002019
:1042A000F8B504460E466588407F15F004011346B4
:1042B00018BF04F15F013246FEF7FCFEC207054657
:1042C0000BD5012384F85030607FFEF757FF036859
:1042D000C4F851308388A4F85530AB070CD5094E8B
:1042E0000127306884F85E7004F15F0109F0C3F8BB
:1042F0003068394609F0CFF885F00400C0F380003B
:10430000F8BD00BFC40F002038B5C38D0E4D01337A
:10431000C385AB7C04462BB102F0B0FB01F048FD35
:104320000023AB7400232B7194F871302BB1012161
:104330002046BDE8384008F017B9637C13B1E28D20
:104340009A42F4D20021F3E7C40F002010B5094CC3
:104350002379012B02D02379022B05D1A37C1BB139
:1043600002F08CFB01F024FDE069BDE81040FFF78E
:10437000CBBF00BFC40F002070B5294C2379012B9F
:1043800007D02379022B04D040F638412D20FBF7CB
:1043900043FFA0B90125A37C1BB102F06FFB01F024
:1043A00007FD002D3AD0E06908F056F8002830D01B
:1043B00002F04CFA236ABDE870409B6818472168F8
:1043C000E26911F8095B02F15103E80992F8502003
:1043D00008F0B4FE0028DDD02068002109F080F844
:1043E0000028D7D02379E069012B05D02379022B4F
:1043F00002D040F61141C9E72379226A03F18043D4
:104400005269013B05F00F0152F8233098470546E9
:10441000C1E7E069BDE87040FFF776BF70BD00BF3F
:10442000C40F0020074A0346D06903B909B9FFF752
:104430006BBF1379126A03F180431269033B52F890
:1044400023301847C40F00202DE9F043032985B01D
:10445000054690467BD090F870300529DBB202D13A
:104460004288D60760D5002B5ED10127DFF8E8909F
:1044700099F81260B6B108F096FE082888F8000096
:1044800014D002AA0DF10701FEF7EAFD20B940F6AB
:10449000A4612D20FBF7C0FE9DF8070002A909F0DA
:1044A00083FC064698F80030082B08D1D9F8001094
:1044B00011F8030BC0F3801009F076FC0646D9F81A
:1044C000001095F8572011F8030B05F15803C0F3BD
:1044D000801008F033FED9F80010044611F8030BE1
:1044E000C0F3801008F055FE8146FEF759FE0146E4
:1044F00040B1B9F1080F1BD04846FEF77DFD80F0B2
:104500000101C9B298F80000082815D094B96B7F52
:104510001C1A604260416B885A0706D421B996B9CB
:10452000EB7C93B1BB4210D0002005B0BDE8F08316
:104530000021E7E70120EEE714B181F00104E4B2C5
:1045400004F00100E7E73046EFE70120EDE743889C
:104550009B07E9D5022789E7C40F00202DE9F04F1A
:1045600085B008230DF10702052104468DF80730B8
:10457000FFF76AFF064620B90026304605B0BDE8C1
:10458000F08F744F3968FA7C11F8030B07F11403AC
:10459000C0F3801008F0D2FD80460028ECD13B68C3
:1045A000216A184691F88E2010F8035B02EA551232
:1045B00002F0010281F88E20D3F80320C1F8032015
:1045C0008288A1F807201946226A11F81F0BC0F350
:1045D0008010907009798DF80C10D3F80F10D3F873
:1045E0001F00D161597D0290187D090441EA002124
:1045F000D87C01435162B3F8191082F8728040F2FE
:10460000E24909FB01F191619D7DC5EB451105EB87
:10461000810505EB85056D009585B3F8171009FB3D
:1046200001F19162B3F81B101184B3F81D1051848D
:1046300093F8243003F01F015B0982F89A1082F886
:10464000A031256A94F912B002A905F18E0008F094
:1046500063FE40F20113A5F868304FF0FF0A85F8B9
:104660006AA0414605F13000FFF7FAF8594628469E
:10467000FEF730FE236A84F87B801A88A4F87C2039
:1046800084F899A04FF6FF72A4F89A209A69B2FBB9
:10469000F9F2A4F892201A8CA4F894205A8CA4F869
:1046A000962093F8A02184F89820227F9DF8070097
:1046B00004F186015AB394F85020012A27D194F8C6
:1046C000562002F0C002402A21D1D4F85120C4F86B
:1046D0008620B4F855208A809A7884F87F200828AC
:1046E00003F1030504F18002D3F8033004F18C01D7
:1046F00027D0C4F88C30AB888B8004F17F01FEF7A3
:10470000AFFC40B940F697312D20FBF785FD002224
:10471000C4F88620DFE794F87F3043F0020384F882
:104720007F3004F172000C4909F025F80B4B206A28
:104730001B6800223A71002B3FF41FAF21469847B7
:104740001BE7C4F88030AB8893800023C4F88C301A
:104750008B80E6E7C40F0020D5DD0000A402002016
:10476000032973B5044604D0052952D0012002B0B4
:1047700070BD08230DF107028DF80730FFF764FEC6
:104780000028F3D0237C284D03B39DF8070094F84C
:10479000BE30DBB9237884F8BF30082804F1C102A9
:1047A00028D004F1C001FEF75BFC20B940F61A7175
:1047B0002D20FBF731FD94F8C03043F0020384F85C
:1047C000C0301A4904F1B60008F0D5FF2B68062264
:1047D00004265A701E702046FFF750FD94F84020C2
:1047E000E16B286808F06DFE28682E7102F0CEF8A3
:1047F0000020BCE72868034613F8031BC1F38011AF
:1048000084F8C010D0F80310C4F8C1109B889380BE
:10481000D7E7074B1B6823B1984780F00100C0B26F
:10482000A5E71846A3E700BFC40F0020BDDD0000C8
:10483000A0020020F8B504460F4619B300F1280580
:10484000284609F0AFFCA0B963881A072ED5284680
:1048500009F0BFFC0646284609F0A4FC301AC0B295
:1048600009F0C7FC444A936803442846936009F062
:1048700075FC284609F077FC01F07CFF21792520A2
:1048800001F080FE3C4D94F85E2028680023037000
:1048900043706388103B0D2B5ED8DFE803F0595D51
:1048A000550C5D405D5D5D5D5D5D5D402046BDE834
:1048B000F840FFF729BD06234370202303702046EC
:1048C000FFF7DCFC638823F008039BB2152B05D0AF
:1048D00094F83820616B286808F0E4FD286802F03D
:1048E00055F8032321792B71002001F049FF06467A
:1048F00007B9E86063881B0704D509F077FC064414
:10490000C4F8D8606388103B0D2B30D8DFE803F083
:10491000322F29292F292F2F2F2F2F2F2F290C23EB
:1049200043702123037042B104F15F0108F0A3FD3D
:104930000121286808F0AFFDC1E704F1580108F033
:104940009AFD94F85710F4E7062303704370B6E716
:10495000022303700623F9E740F21F612D20FBF7C5
:104960005BFC21790120BDE8F84002F0A1B840F6D7
:10497000AB41F3E7F8BD00BFC40F002038B5438852
:10498000102B044604D1BDE838400121FFF752BF87
:104990000B4DAB7C23B101F0F1F9402002F062F83D
:1049A000286801F0F3FF608810F0040002D121793B
:1049B00002F07EF8002002F031F801232B7138BD9F
:1049C000C40F0020024B0121D869FFF733BF00BF9D
:1049D000C40F002010B5134CA37C1BB102F04EF89D
:1049E00001F0E6F9E06907F037FD70B12379E0697D
:1049F000012B0FD12379226A03F18043D268013B56
:104A0000BDE8104052F823301847E069BDE8104077
:104A1000FFF77ABC2379022BECD040F63B312D20F6
:104A2000FBF7FAFBC40F002010B50948037903F027
:104A3000FF0453B918222146043005F0B5FF02F0F7
:104A40001DF801F0B5F9204610BD0C24FBE700BFAE
:104A5000C40F002010B5094C002323712060FFF71C
:104A6000E3FF20B140F2EA212D20FBF7D5FB236ABA
:104A700013B940F2ED21F7E710BD00BFC40F0020CD
:104A8000014B024A1A627047C40F0020684D0000B3
:104A9000034B044A1A60044B044A1A60704700BF73
:104AA000A00200205D450000A4020020712100004A
:104AB0002DE9F041067DB31EDBB2012B04468CBF0D
:104AC0004FF000084FF001087EB3B71E18BF012752
:104AD000012B36D800F1580190F8570008F059FB27
:104AE000082805462DD0FEF793FA58BB657784F861
:104AF0001C8084F85070FEF7ADFA054609F094FD6D
:104B0000174BA5FB03351B1845EB01050022C4E933
:104B1000123584F85E2011462046FFF7C1FB70B9BC
:104B200040F275412D20FBF777FB3746082504F14D
:104B300051010020FEF752F90028D7D10020BDE82E
:104B4000F0810825022EF2D0E37E002BF6D0D4F8B7
:104B50001530C4F85130B4F81930A4F85530C5E711
:104B600040420F00F0B5464E327985B0044602F05F
:104B7000FF0312B90278FF2A04D140F6A2112D20BA
:104B8000FBF74AFB3382B3607371B37180F8713005
:104B90003C4B00933C4B01933C4B0293336A684679
:104BA0005B68039301F0EAFE01F02AFD01F066FF65
:104BB00001F0FEF8364801F0B7FD04F1280535484C
:104BC00001F0D6FE284609F0C9FA284609F0CBFACA
:104BD00001F0D0FD2179252001F0D4FC94F91200D8
:104BE00001F09CFD04F13401206B07F04CF904F155
:104BF0003C010746206B07F06DF9054617B194F8A4
:104C00002430C3B90DB194F82550237F13B96388BC
:104C10005B0709D5D4E912126FF000439A4208BF2E
:104C2000B1F1FF3F09D185B930680330FEF730FAA2
:104C3000B07405B0F0BD0125E7E709F0F5FCD4E953
:104C40001223904271EB0303EDD3012205EA020126
:104C50002046FFF725FB68B1FEF7FCF9054609F091
:104C6000E3FC0D4BA5FB03351B1845EB0105C4E91F
:104C70001235D9E7002DD7D040F6D7117FE700BF16
:104C8000C40F0020D54900007943000025440000EE
:104C9000D6BE898E5555550040420F00F7B50446E3
:104CA000FFF760FF00212046FFF7C4FDA36E0BB1A4
:104CB00001221A606388DB0721D50023114E256A83
:104CC000CDE90033FF23F37405F10A076846FBF7CB
:104CD000E3FEA0B9009CA542F8D06A7A607A3B4610
:104CE00004F10A0108F02AFA0028EFD0A378F3743F
:104CF000D4F803007061044BB4F807209A8003B025
:104D0000F0BD00BFC40F0020D80F0020024BD861B7
:104D10001B6A1B68184700BFC40F002043881B078D
:104D200010B5044611D5036A0A493C2280F87B205D
:104D30001B88A0F87C30FF2380F899304FF6FF7372
:104D4000A0F89A30723008F016FDFF2384F8713015
:104D500010BD00BFD5DD0000614700007D490000A7
:104D60002DDE000027DE00009D4C00004D430000BA
:104D7000C5490000644D00005C4D0000584D000026
:104D80000138022808B503D9C3212F20FBF744FAC4
:104D900013290A4B05D811290CD8102907D0D12185
:104DA000F3E71529FBD103EB4003D88801E033F882
:104DB000100008BD03EB40039889FAE7C8240200FD
:104DC000F8B52F4B1A88402842EA00021A8005D114
:104DD00004219868BDE8F840FDF7FAB8802801D1B1
:104DE0000521F6E700F00302032A04D140F60E2164
:104DF0003120FBF711FA10F0020418BFD960C50783
:104E000005D5CA781961062A0DD00B2A18D02CB105
:104E1000DA68D278052A1FD00B2A2AD0820644BF2E
:104E200008221A75F8BD9A6892F887101829EED1F1
:104E3000002600270121C2E9386782F88B10E6E7D7
:104E40009A6892F88710122901BF002182F88B100E
:104E5000012182F8C810DAE79A6892F887101629BB
:104E6000DCD100240025C2E93A45012182F88C10EA
:104E7000D4E79A6892F887101129CFD10021F5E77D
:104E8000E80F002013B5044601A8FDF72FFF20B955
:104E900040F60C013120FBF7BFF9222200210198D6
:104EA00005F082FD0198032108F068FB0198037862
:104EB00023F0100303702146FEF78CFA019906488F
:104EC0002246FEF7F3FDFDF727FF10B940F6160165
:104ED000E0E702B010BD00BFEC0F002070B5274C1A
:104EE000A36893F8466293F84752002E3FD193F897
:104EF0006810002D3DD193F8692083F8681083F87D
:104F00006920FF2283F86A201D4B1B680BB1A06843
:104F10009847A36893F82431012B02D056EA050381
:104F200003D018480021FDF795FDA068303008F047
:104F300056FC0546A06800F23511FEF7A7FCA068F4
:104F40000621FDF745F8A068303008F048FC85429E
:104F5000044610D202F07AFD0146601B322838BFA9
:104F6000322004F007FEB0FA80F0400970BD3146EF
:104F7000BFE72A46C1E70120F8E700BFE80F00209D
:104F8000AC020020EC0F0020002908BF1F211728C9
:104F900010B503460BD80D280DD90E3809280AD8AC
:104FA000DFE800F00B0909090B090B09110BA0F14F
:104FB0002303022B23D9002010BDBDE8104000219F
:104FC000184609F01AB9114CA36893F88620212AD3
:104FD00009D1201DFDF73EFDA368002283F886203D
:104FE00083F8C220E7E72E2AE5D193F88730A3F1B2
:104FF0002002062AF0D92E2BEED02A21E9E7044B15
:105000001B68002BD7D0BDE810401847E80F0020E0
:10501000A8020020114B09790246986890F8863062
:10502000212B11D02E2B0FD0282B0FD0042B0FD0DB
:105030000F2B0FD01D2B0FD090F88730232B14BFD0
:10504000FE201720FFF7A0BF1620FBE72320F9E77B
:105050000E20F7E71220F5E71420F3E7E80F002011
:1050600008B50C4B9B6893F80E21FE2A04D040F63D
:105070001B013120FBF7D0F883F80E0111B9A3F81A
:10508000C41008BD0022A3F8BE20012283F8C2206C
:10509000F7E700BFE80F00200C4A117D91B938B93D
:1050A0009068B0F85810828F91420BD8FCF782BFFD
:1050B00013881B0708D5936893F88800073818BF32
:1050C000012070470020704701207047E80F002042
:1050D00010B5154BDB681979436893F88620092AC7
:1050E00009D193F809218A4205D1002283F886204C
:1050F00083F8C22010BD9A6F12F0080406D022F087
:105100000802BDE810409A6708F0F5BBFF2905D1F9
:10511000332283F8862083F83C42EBE740F20451C7
:105120003120FBF779F800BFE80F002010B50B79AC
:105130004268172B92F8862004460CD80D2B0CD908
:10514000A3F10E01092908D8DFE801F009070707D4
:10515000090709071009232B26D0002010BD22467D
:105160000121BDE81040184609F047B8212A01D0B6
:105170002E2AF2D1204608F0ABFB636893F8872013
:10518000222AEAD093F8D92022F0010283F8D9200C
:10519000626892F8D93023F0080382F8D9301A21D6
:1051A0002046FDF757FCD8E7282AD6D1024B1B68CA
:1051B000002BD2D09847D0E7B0020020F7B57F4C43
:1051C0000546002840F0AC8023881F0727D5A36838
:1051D00093F80E21FE2A04D140F276513120FBF7DC
:1051E0001BF8FE2283F80E2193F887201A2A07D194
:1051F00083F8C700201D08F07EFBA36883F8875062
:10520000A36893F88620202A32D0332A3ED093F820
:105210008820072A02BF0222627583F80E212388A4
:10522000DE073CD42388580700F1A980990713D5DD
:10523000E368DE780D2E00F0AA80112E00F0A98020
:10524000072E00F0A8803046FEF7F2FC0346002847
:1052500000F0A3805A4898472388DA0660D5A368EF
:1052600093F887200A2A5BD10B2283F8872057E026
:1052700093F88720A2F12001062901D92E2A03D113
:105280002E2283F88620C2E72122FAE7012283F842
:105290003D22002283F8862083F8C220B7E7A36866
:1052A000276993F88730113B0B2B0BD8FB78023B17
:1052B000DBB2092B7DD8012202FA03F340F233322C
:1052C000134276D03846FEF76BF8FE7820B93146A7
:1052D0003B4808F038FB45E0012E01D9162E0FD1CE
:1052E000A36893F8860008F01BFB48B1A36893F805
:1052F0008620202A04D0212A0ED12E2283F886204F
:10530000112E34D026D8072E33D00D2E33D0304670
:10531000FEF77CFC034621E0162E0CBF202502255B
:10532000237D1B0713D5A36893F88730113B0B2B04
:1053300041D9002601A903200196FCF70DF8019B35
:105340002BB11E720C22A1680198FEF739FA28468B
:1053500003B0F0BD142EDAD11A4B1B686BB1216972
:105360001748984700283FF45DAF0546D8E7164B2D
:10537000F5E7164BF3E7164BF1E7F978A8E7A268D3
:1053800092F88820062A04BF012262754EE7114B6D
:1053900060E7114B5EE7114B5CE7FF2E06D1A26878
:1053A000332182F8861082F83C0255E740F26A51B8
:1053B00014E70825B4E70825C9E700BFE80F002077
:1053C000EC0F0020B802002007E300002D51000080
:1053D0001550000097E20000B5E20000D150000037
:1053E0002DE9F041A44CB4F800800E46A16818F4F1
:1053F000007F0ABFB1F8B8200023013201F178051F
:1054000007461ABFA1F8B83081F8B731A1F8B82023
:10541000284608F067FF28B1434601F596722846F2
:10542000FEF7BAFD238803F4C06333B1A06890F897
:105430008A30002B4AD0032B4ED0A168238891F8E4
:105440008A20012A04D11D0544BF022281F88A2046
:10545000002F40F0AC8058065DBFB1F8D02101327A
:1054600092B23A46A1F8D02103F00A020A2A0DD1DD
:10547000E268D278022A09D123F00803304623805B
:10548000FFF79CFE08230643F6B223803046FFF761
:1054900095FEA36893F80E210643FE2AF6B24ED17C
:1054A000002E4CD193F88820063A012A47D993F868
:1054B0001831B3B1A36893F81921A3F8BC6083F83D
:1054C000102101210220FFF7CBFD38E0012180F8F7
:1054D0008A10FCF77DFDB0E7022380F88A300121B5
:1054E000F7E7A06890F88730A3F11005EDB20C2D16
:1054F00011D8113B0B2B00F25181DFE813F00701AB
:105500004F014F014F010A0112014F014F014F019D
:105510004F014F013D01836FD90702D53146092064
:10552000D1E79A0740F19A8031460C20FFF798FDA9
:10553000A26892F8C93043F0010382F8C930A56827
:10554000B5F8B03195F8B4810133A5F8B031B8F1B0
:10555000000F00F0E181FBF7F1FE10B10023A5F888
:10556000B031A16891F88A80B8F1010F40F20A8247
:1055700091F88830072B40F0E781B1F8B830022B62
:1055800040F20082B1F8BA500135ADB2B1F88030C6
:105590002B44A1F8A83191F8B531002B00F0F68129
:1055A0000123A268B2F880100B44A2F8AC31228823
:1055B000A36855065BBFB3F8BC21B3F8AE11002257
:1055C0005218A3F8BC2193F818312BB9A36893F8AB
:1055D0008830063B012B07D8A368B3F8BC20B3F88A
:1055E000AE110A44A3F8BC20A36893F8C20030B1FE
:1055F000B3F8BE20B3F8AE110A44A3F8BE2093F965
:10560000C6100029C1BFB3F8C420B3F8AE51521977
:10561000A3F8C42093F8A9205AB9002F40F04B8278
:10562000627D022A40F0008293F81021062A18BFFA
:105630001622A36893F8A8302BB9A3680F4883F803
:10564000A920FEF707FBA06808F09CFEA3680022D3
:1056500083F8B321BDE8F041FDF784BB590702D5BB
:10566000314613202FE71A070AD590F8083180F841
:1056700010313146072026E7E80F0020EC0F00200C
:1056800013F0300F3CD090F81B31002B40F0198202
:10569000A36893F81A31E3B1A06890F88730252BFE
:1056A00000F58D7100F2462228D090F88630A3F1E3
:1056B000250CDCF1000343EB0C0308F094F8A2681E
:1056C000936F23F0200343F010039367002382F8C5
:1056D0001A31A068836FDA0640F1F38100F23511C8
:1056E000FEF7D4F8A368B3F85220A3F81021B3F85A
:1056F0005620A3F8122100211520E4E60123DCE75F
:105700005B0640F1DE8100212420DCE600210B2035
:10571000D9E6FEF713FB00283FF411AF0021042067
:10572000D1E690F83832012B08D100210520FFF78F
:1057300097FCA368002283F8382200E7A36893F857
:105740003832022BD8B27FF4FAAEA36893F8C8506F
:1057500006221DB183F810210021E8E7B04803219B
:1057600008F0D8F8A36893F8D83013F0040F29464E
:1057700014BF11200D20DAE700210620A3E693F8DC
:105780002421022A02D1002117209CE693F824212B
:10579000012A03D193F82531002BF4D0A36893F8A4
:1057A00086206AB993F88720103A0C2A40F2998132
:1057B00093F8B620002A00F094810121122082E69D
:1057C000092A40F08A8193F8092183F810210121E8
:1057D00050E7A36893F82A319BB1A36893F8C930C6
:1057E00013F003050DD101210C20FFF739FCA3684C
:1057F00093F8C92042F0010283F8C92083F82A51A6
:105800009BE7A36893F81A3153B3A36893F81B314D
:1058100033BBA06890F88730252B00F58D7100F21E
:1058200046221BD090F88630A3F1250CDCF1000352
:1058300043EB0C0307F0D7FFA368002283F81A217B
:1058400001211420FFF70CFCA368B3F85220A3F841
:105850001021B3F85620A3F8122170E60123E9E7DE
:10586000A36893F82421012A4CD193F82531002B09
:1058700048D1A16891F88730A3F12002062A41D9C6
:105880002E2B3FD091F86850012D06D0022D04D068
:105890004FF450710620FAF7BFFC91F86900012817
:1058A00001D00228F4D1022D91F826210AD0012A34
:1058B00014BF002201223AB90A3B042B12D901215C
:1058C000162000E6022AF3E7022891F8272117D0D4
:1058D000012A14BF00220122002AEDD050480021E5
:1058E000FDF7B8F8A36893F88620002A7FF427AE66
:1058F00093F83C32002B3FF422AE0121FF20E2E579
:10590000022AE6E7474B1B68002BEBD04448984738
:10591000FE28E7D00121D6E5FBF70AFD08B1A5F87E
:10592000B081FBF713FD00283FF41BAE95F8B731AB
:105930000133DBB2022B85F8B73182BF0023A5F813
:10594000B03185F8B7310CE691F8B6301BB191F85B
:1059500086300F2B16D1B1F8BA50B1F8B83001F13A
:105960007800ED1A033D08F0BDFC68B1D1F8B03005
:10597000D1F8AC20033B9B1A9D42A8BF1D46012DC8
:105980003FF703AE012501E62B46F5E7012D7FF633
:1059900007AE91F8873013B10B2B7FF401AE91F86D
:1059A0008630002B7FF4FCAD91F88830002B7FF41B
:1059B000F7ADB8F1020F7FF4F3AD91F8B731002BDA
:1059C0007FF4EEAD0869B1F82E8006F0BDF800282E
:1059D0003FF4E6ADA26892F80E31FE2B7FF4E0AD05
:1059E000B2F8AA31012B7FF6DBADB2F8B011138CFF
:1059F0009942BFF4D5AD5B1A9BB2013DADB2B5FB88
:105A0000F8F59D4228BF1D4618FB05F3003D03F144
:105A1000010318BF01259BB282F8B251C1E500BF56
:105A2000EC0F0020B4020020012A09D193F889204C
:105A3000002A7FF4FEADA0680021FCF7C9FA05E654
:105A40005EB1F00635D4310735D4B20635D4B3078C
:105A500035D14FF4196131201DE738B1B3F8BE00DC
:105A6000B3F8C020904201D32222E2E5002905DDEF
:105A7000B3F8C410B3F8C0209142F5D2B3F8BC100B
:105A8000B3F8BA2091420BD2A36893F88A10B3F806
:105A9000B82051B1B3F8BA309342CCD80822C8E547
:105AA00093F81831002BDFD1EEE7052AC3D93E2247
:105AB000BFE51E22BDE53D22BBE52322B9E52A2232
:105AC000B7E5A36893F88720222A3FF458AE312A1D
:105AD0007FF464AE00211120F5E40C2D3FF602AFF7
