:10000000C0EB002005390100EF860200F138010045
:10001000F1380100F1380100F13801000000000062
:10002000000000000000000000000000813A010014
:10003000F138010000000000193A0100F138010018
:100040003D3C010039B002003D3C01003D3C010057
:100050003D3C01003D3C01003D3C01003D3C0100B8
:10006000EFAF02003D3C01003D3C010023B0020027
:100070003D3C01003D3C01003D3C01003D3C010098
:100080003D3C01003D3C01003D3C01003D3C010088
:100090003D3C01003D3C01003D3C01003D3C010078
:1000A0003D3C01003D3C01003D3C01003D3C010068
:1000B0003D3C01003D3C01003D3C01003D3C010058
:1000C0003D3C01003D3C01003D3C01003D3C010048
:1000D0003D3C01003D3C01003D3C01003D3C010038
:1000E0003D3C01003D3C01003D3C01003D3C010028
:1000F0003D3C01003D3C01003D3C01003D3C010018
:100100002DE9F14F03F11C0402EB840C4FEA930B31
:100110008A68CB680868496800F046F93CE9F00055
:100120006040694072407B400BF1060E4EE083EA6E
:10013000134480EA134582EA134746BA96EA3444E8
:10014000604000F00F1684EA063420F00F1684EAAF
:10015000161054BA94EA0106724002F00F1486EAAF
:10016000043622F00F1486EA14124CBA6540694036
:1001700001F00F1485EA043521F00F1485EA1411FB
:100180005CBA67407B4003F00F1487EA043723F022
:100190000F1487EA141344BA44404DBA4D4056BA7E
:1001A00056405FBA5F4087EA174886EA174B84EAF1
:1001B00017464FEA38488BEA1B4485EA1B4788EA12
:1001C0001B4580EA3440694072407B4000F0703447
:1001D00000F0803500F00F3040EA440040EAD500DE
:1001E00080EA900404F0332480EA8400604001F047
:1001F000703401F0803501F00F3141EA440141EAE9
:10020000D50181EA910404F0332481EA840161403C
:1002100002F0703402F0803502F00F3242EA4402FC
:1002200042EAD50282EA920404F0332482EA84028C
:10023000624003F0703403F0803503F00F3343EA7B
:10024000440343EAD50383EA930404F0332483EAA6
:1002500084036340C943DB4381EA000483EA044624
:1002600086EA020183EA014382EA334583EA1443C2
:100270005C4084EA00077FEA040A8AEA024A8AEAC2
:10028000010B87EA11488AEA374A80EA060181EAC7
:100290001A418AEA030A04EA0A00454088EA040788
:1002A00007EA0B0041408AEA0B0608EA060084EAE6
:1002B00034428AEA3A4602EA060358404540414041
:1002C00087EA37438BEA3B4003EA000985EA0905E0
:1002D00082EA0309464006EA0906714085EA010000
:1002E00005EA3546464006EA314181EA304181EA75
:1002F000364606EA304686EA354634400F4086EAFE
:10030000010508EA050886EA3640024088EA020844
:1003100081EA314213405C4080EA020309EA0309A2
:1003200087EA0907674088EA040806EA0A0601EA3C
:100330000B018AEA0B0425408AEA3A4420404540F2
:100340008BEA3B4B02EA0B02564084EA0B04234043
:1003500059406E40694087EA364080EA384080EA7A
:10036000060380EA104481EA134585EA344585EAAC
:1003700017427D4082EA354180EA05403CE9F000C1
:100380006040694072407B40BEF1010E3FF6CFAE47
:1003900020BC00F05FF828606960AA60EB60BDE8EF
:1003A000F08F00BF00F000BA80EA101404F0F014DF
:1003B00080EA0410604081EA111404F0F01481EA2C
:1003C0000411614082EA121404F0F01482EA04126B
:1003D000624083EA131404F0F01483EA04136340C8
:1003E00080EA102404F47F4480EA0420604081EA1B
:1003F000112404F47F4481EA0421614082EA12243A
:1004000004F47F4482EA0422624083EA132404F461
:100410007F4483EA0423634081EA500404F05534A6
:1004200080EA4400614083EA520404F0553482EAD1
:100430004402634082EA900404F0333480EA84008A
:10044000624083EA910404F0333481EA840163401A
:10045000704700BF82EA900404F0333480EA8400DD
:10046000624083EA910404F0333481EA84016340FA
:1004700081EA500404F0553480EA4400614083EA84
:10048000520404F0553482EA4402634080EA1024A6
:1004900004F47F4480EA0420604081EA112404F4DB
:1004A0007F4481EA0421614082EA122404F47F44FB
:1004B00082EA0422624083EA132404F47F4483EA3C
:1004C0000423634080EA101404F0F01480EA04105E
:1004D000604081EA111404F0F01481EA04116140D3
:1004E00082EA121404F0F01482EA0412624083EAF1
:1004F000131404F0F01483EA04136340704700BF40
:100500002DE9F14F94464FEA930B8A68CB6808684F
:100510004968FFF749FF0BF1060E33E083EA134405
:1005200080EA134582EA134746BA96EA34446040AB
:1005300000F00F1684EA063420F00F1684EA161035
:1005400054BA94EA0106724002F00F1486EA0436A7
:1005500022F00F1486EA14124CBA6540694001F08B
:100560000F1485EA043521F00F1485EA14115CBAE2
:1005700067407B4003F00F1487EA043723F00F1421
:1005800087EA1413BCE8F0006040694072407B4089
:1005900000F0E03400F0103500F00F3040EA540075
:1005A00040EAC50080EA900404F0332480EA840025
:1005B000604001F0E03401F0103501F00F3141EA04
:1005C000540141EAC50181EA910404F0332481EA2F
:1005D0008401614002F0E03402F0103502F00F3285
:1005E00042EA540242EAC50282EA920404F0332449
:1005F00082EA8402624003F0E03403F0103503F035
:100600000F3343EA540343EAC50383EA930404F037
:10061000332483EA8403634081EA324787EA13453F
:1006200081EA354690EA060484EA034B82EA1B42DB
:1006300080EA044484EA054483EA144A85EA1444BF
:100640008BEA044B84EA374481EA0B4181EA164184
:1006500004EA0A00454082EA04082BEA0800414007
:100660008AEA0B0602EA060084EA34438AEA3A463A
:1006700003EA060778404540414088EA38478BEA5C
:100680003B4007EA000985EA090583EA0709464075
:1006900006EA0906714085EA010005EA354646404A
:1006A00006EA314181EA304181EA364606EA3046BF
:1006B00086EA3546344008EA010886EA01052A4000
:1006C00086EA364003405A4081EA31431F407C406D
:1006D00080EA030709EA070988EA0908544088EA1A
:1006E000020806EA0A0601EA0B018AEA0B02154033
:1006F0008AEA3A42104045408BEA3B4003405E4064
:100700004240174079404D404E40E443F64386EA6C
:1007100018435D4085EA054083EA134386EA0341B6
:1007200083EA384284EA114383EA04435FEA3343AD
:10073000BEF1010E3FF6F2AE1ED4BCE8F000604000
:10074000694072407B4020BCFFF784FE28606960EE
:10075000AA60EB60BDE8F08F2DE9E0414FF2F002B6
:1007600080EA1031114080EA013048404108820897
:10077000C3084FF0000E4FE700F0113001F01131C7
:1007800002F0113203F0113340EA410040EA8200E6
:1007900040EAC3004FF2F00280EA1031114080EAD3
:1007A00001304840BDE8E0812DE9F04F02F11C0521
:1007B0000646074600EB850851F8040B043A46F854
:1007C000040BF9D14FF0010CFFF7C6FF5FEA3020B0
:1007D00080EA0C001ECF41404A4053405C401EC698
:1007E0002000464517D04FEA4C0C1CF4807F18BF00
:1007F000ACF1E50C2C2DE7D03C2D06D1FFF7ACFF7A
:1008000006CF41404A4006C6100006CF41404A404C
:1008100006C61000D8E736E90F00FFF7C5FD043D16
:1008200086E80F00F7D1BDE8F08F00BF2DE9F00793
:1008300091E8F807B2E802105B1854EB0C04B2E838
:1008400002104D4156EB0C06B2E802104F4158EB36
:100850000C08B2E8021059EB01095AEB0C0A80E8C7
:10086000F80780410130BDE8F00770472DE9F00737
:1008700091E8F807B2E802105B1A74EB0C04B2E8D6
:1008800002108D4176EB0C06B2E802108F4178EB36
:100890000C08B2E8021079EB01097AEB0C0A80E847
:1008A000F80780414042BDE8F00770472DE9F007A6
:1008B000524290E87800B1E880071740DB1918EA47
:1008C000020854EB080419EA020955EB09051AEA73
:1008D000020A56EB0A0678C090E87800B1E8800773
:1008E00017407B4118EA020854EB080419EA020990
:1008F00055EB09051AEA020A56EB0A0678C0804150
:100900000130BDE8F00770472DE9F007524290E84A
:100910007800B1E880071740DB1B18EA020874EB87
:10092000080419EA020975EB09051AEA020A76EBCE
:100930000A0678C090E87800B1E880071740BB410C
:1009400018EA020874EB080419EA020975EB0905B4
:100950001AEA020A76EB0A0678C080414042BDE8F6
:10096000F00770472DE9F00152424FF0040890E87B
:10097000300091E8C000A31B1340E41AF618EB1BEB
:100980001340ED1AFF1830C0C0C1B8F10108EED114
:10099000BDE8F001704700BF00B592E8DC072DE923
:1009A000DC07B1E8805702B4A7FB02510A95A8FB07
:1009B000020BE7FB6310E9FB62B00B91A8FB03514C
:1009C000EAFB6201E7FB64B5E7FB6605E8FB661539
:1009D000CDF830B0A9FB03B6EAFB6316ECFB635617
:1009E000E8FB640BE9FB641BEAFB645BECFB646BF8
:1009F0000D90ACFB0230059CEEFB6250E9FB64609D
:100A0000EAFB64B0E7FB6431E8FB6451069CE8FB59
:100A10006461E9FB64B1EAFB64010E93A7FB043255
:100A2000079CE7FB6462E8FB64B2E9FB6402EAFB53
:100A30006412049CE9FB6453EAFB6463089CE7FBD3
:100A400064B3E8FB6403E9FB6413EAFB64230F95DA
:100A50005DF8049B99E80006DDF80080A9FB0854C6
:100A6000EAFB68B4DDF81080ECFB6804EEFB681468
:100A7000E9FB6824EAFB6834DDF80480EEFB686576
:100A8000E9FB68B5EAFB6805DDF81480ECFB681546
:100A9000EEFB6825E9FB6835EAFB68450F96DDF853
:100AA0000880AEFB0876E9FB6806EAFB6816DDF80D
:100AB0001880ECFB6826EEFB6836E9FB6846EAFB2B
:100AC0006856DDF80C80ECFB68B7EEFB6807E9FBC5
:100AD0006817EAFB6827DDF81C80ECFB6837EEFB43
:100AE0006847E9FB6857EAFB686708B000BD00BFCC
:100AF0002DE9F14F87B0FFF74FFFDDF81C8008F1BB
:100B0000200888E8FF00FFBC87E87F08BDE8F08F79
:100B100000B591E89857A3FB03520195A3FB04018C
:100B2000E3FB6420E3FB67100292A3FB0752E3FBA5
:100B30006802E4FB6415E3FB6805E3FB69250391A8
:100B4000A4FB07B6E3FB6926E3FB6A56E4FB670BED
:100B5000E4FB682BE3FB6A5BE3FB6C6B0490A4FB98
:100B60000810E4FB6950E3FB6C60E3FB6EB0E7FB4D
:100B70006721E4FB6951E4FB6A61E3FB6EB1E4FBCE
:100B80006E010592A7FB0832E4FB6A62E4FB6CB2DB
:100B9000E4FB6E02E7FB6E12E7FB6853E7FB696359
:100BA000E4FB6CB3E7FB6C03E7FB6E13E8FB6E231F
:100BB0000695A7FB0954E7FB6AB4E7FB6C04E8FB66
:100BC0006C14E8FB6E24E9FB6E34E8FB6865E7FB18
:100BD0006AB5E8FB6A05E8FB6C15E9FB6C25E9FBE7
:100BE0006E35EAFB6E450796A8FB0976E8FB6A06B8
:100BF000E9FB6A16E9FB6C26EAFB6C36EAFB6E46FB
:100C0000ECFB6E56E8FB69B7E9FB6907E9FB6A177D
:100C1000EAFB6A27EAFB6C37ECFB6C47ECFB6E5790
:100C2000EEFB6E6700BD00BF2DE9F14F87B0FFF707
:100C30006FFFDDF81C8008F1200888E8FF00FFBC8A
:100C400087E87F08BDE8F08F30B44FF0000310F85C
:100C5000014B11F8015B013A84EA050443EA0403FD
:100C6000F5D1A3F101034FEAD37030BC704700BF48
:100C70004FF0000310F8012B013943EA0203F9D1C8
:100C8000A3F101034FEAD370704700BF30B411F8ED
:100C9000014B12F8015B6C4000F8014B013BF6D1AF
:100CA00030BC70472DE9F04F90E8F00F00F14000A4
:100CB0004FF0040E59E0F0B4826BC36B0468052555
:100CC000242687593C444FEA724787EAF24787EA6D
:100CD00092273C4442684FEAF21787EAB24787EA14
:100CE000D2073C4440F8044B032D08BF6FF01B06AD
:100CF00087593A444FEA734787EAF34787EA9327CD
:100D00003A4443684FEAF31787EAB34787EAD307C1
:100D10003A4440F8042B87593B444FEA744787EA2A
:100D2000F44787EA94273B4444684FEAF41787EA7C
:100D3000B44787EAD4073B4440F8043B013DC0D1A7
:100D4000A0F13C00076A3C444FEA724787EAF24749
:100D500087EA92273C4402684FEAF21787EAB247D3
:100D600087EAD2073C44C463F0BC4FF0020288EA31
:100D7000781C8CEAF84C0BEBBC1C8AEA090303EAEA
:100D8000080383EA0A039C4450F8043B9C4451F84E
:100D9000043B9C44674444EA050B0BEA060B04EA57
:100DA00005034BEA030BE34484EAF42383EA345358
:100DB0000BEBB30B87EA771C8CEAF74C0AEBBC1CF5
:100DC00089EA080303EA070383EA09039C4450F80D
:100DD000043B9C4451F8043B9C4466444BEA040A9F
:100DE0000AEA050A0BEA04034AEA030AE2448BEA28
:100DF000FB2383EA3B530AEBB30A86EA761C8CEAB0
:100E0000F64C09EBBC1C88EA070303EA060383EAF5
:100E100008039C4450F8043B9C4451F8043B9C4418
:100E200065444AEA0B0909EA04090AEA0B0349EA9C
:100E30000309E1448AEAFA2383EA3A5309EBB30946
:100E400085EA751C8CEAF54C08EBBC1C87EA0603A6
:100E500003EA050383EA07039C4450F8043B9C44DF
:100E600051F8043B9C44644449EA0A0808EA0B0828
:100E700009EA0A0348EA0308E04489EAF92383EA15
:100E8000395308EBB30884EA741C8CEAF44C07EB82
:100E9000BC1C86EA050303EA040383EA06039C44B8
:100EA00050F8043B9C4451F8043B9C44E34448EA1A
:100EB000090707EA0A0708EA090347EA030767443C
:100EC00088EAF82383EA385307EBB3078BEA7B1CE5
:100ED0008CEAFB4C06EBBC1C85EA040303EA0B031B
:100EE00083EA05039C4450F8043B9C4451F8043BBE
:100EF0009C44E24447EA080606EA090607EA0803B2
:100F000046EA0306664487EAF72383EA375306EB8B
:100F1000B3068AEA7A1C8CEAFA4C05EBBC1C84EA1C
:100F20000B0303EA0A0383EA04039C4450F8043BDE
:100F30009C4451F8043B9C44E14446EA070505EA19
:100F4000080506EA070345EA0305654486EAF62331
:100F500083EA365305EBB30589EA791C8CEAF94C30
:100F600004EBBC1C8BEA0A0303EA090383EA0B03C4
:100F70009C4450F8043B9C4451F8043B9C44E0449E
:100F800045EA060404EA070405EA060344EA030402
:100F9000644485EAF52383EA355304EBB304013A4C
:100FA0007FF4E5AEA0F14000BEF1010E7FF483AE08
:100FB000A0F1400C9CE80F00001949199219DB19A7
:100FC000ACE80F009CE80F004044494452445B44A5
:100FD000ACE80F00BDE8F08F2DE9F00791E8F807C5
:100FE000B2E802105B1854EB0C04B2E802104D4159
:100FF00056EB0C06B2E802104F4158EB0C08B2E871
:10100000021059EB01095AEB0C0A8941B3F1FF3385
:1010100074F1FF3475F1FF3576F1000677F10007C2
:1010200078F1000879F101097AF1FF3A51F10001F4
:101030005B184C414D4156F1000657F1000758F13D
:10104000000859EBD1795AEB010A80E8F807BDE8AE
:10105000F00770472DE9F00791E8F807B2E80210B1
:101060005B1A74EB0C04B2E802108D4176EB0C06AF
:10107000B2E802108F4178EB0C08B2E8021079EB6D
:1010800001097AEB0C0A89415B184C414D4156F13C
:10109000000657F1000758F1000859EBD1795AEBD7
:1010A000010A80E8F807BDE8F007704718EB04086C
:1010B00059EB05095AEB060A5BEB070B5FF0000CD6
:1010C0004CF1000C18EB050859EB06095AEB070A1E
:1010D0005BEB070B50EB0C005FF0000C51EB0C01CD
:1010E00052EB0C0263414CF1000CB8EB070879F1AC
:1010F00000097AF1000A7BEB040BA841B141A2413F
:10110000B3416CF1000CBBEB050BB041B941AA41F6
:10111000BB416CF1000C4CF001068CF0020718EB9F
:10112000060859EB6C095AEB6C0A7BEB6C0B70EB05
:101130006C0471EB6C0572EB670653EB6C076CEBA0
:101140006C0C18EB0C0059EB0C015AEB0C025BF128
:10115000000354F1000455F1000556EBDC7657EB23
:101160000C0770472DE9F14F87B0FFF715FCDDF84C
:101170001080DDF81490DDF818A0FFF797FFBDE8A8
:10118000000FFFF793FF03B05DF8048B88E8FF00C2
:10119000BDE8F08F2DE9F14F87B0FFF7B9FCDDF81E
:1011A0001080DDF81490DDF818A0FFF77FFFBDE890
:1011B000000FFFF77BFF03B05DF8048B88E8FF00AA
:1011C000BDE8F08F064B074A5B7802604FF41C7253
:1011D0008280C3710822002382710372704700BFAE
:1011E000D00D0020E3FD0000064B074A9B7802600B
:1011F0004FF490728280C3710822FF2382710372C0
:10120000704700BFD00D002059F90000F8B5C41D8B
:10121000002824F00704054614BF2046002000F0F3
:101220003FFB071E02DA6FF00B00F8BD0DB9FC4260
:10123000F9D4294E3189F088F37AB27A0331033038
:1012400089B280B20CF09CF80028ECDB317873781E
:101250003C440334002D194424F0030400FB01F145
:1012600014BF2046002000F0A7FC20440DB9002840
:10127000D9DBB2780346B2B1F17CF378114419445A
:10128000FF29D0DC0330002D20F0030414BF2046DA
:101290000020F289C9B200F0FFFC031EC3DB234427
:1012A0000DB9002BBFDB317C81B1B27872B107334D
:1012B000002D23F0070414BF2046002004F094F909
:1012C000031EB0DB23440DB9002BACDB002D0CBF9B
:1012D00018460020A9E700BFD00D00201FB572B648
:1012E000184BDD6AE5B9BFF34F8F1749174BCA6832
:1012F00002F4E0621343CB60BFF34F8F00BFFDE702
:10130000B2FBF6F2DCB20133002AF9D104F110038A
:101310006B4403F80C2C0A2234B901A8A847E2E771
:10132000024600230A26EDE7631E04AEDCB256FA3D
:1013300083F3B0FBF2F602FB1600303003F80C0C1E
:101340003046E9E7D00D002000ED00E00400FA058A
:1013500007B50C4BDA7A8DF801209A7A8DF80020C7
:1013600068461A89DB88ADF80420ADF8023002F037
:1013700081FB18B1DB210320FFF7B0FF03B05DF85C
:1013800004FB00BFD00D002038B5054668B30AF055
:1013900043FA10B94FF0FF3038BD07F097FCB0F5B5
:1013A000FA7FF7D8134C1448E562002500F0F2F9F3
:1013B0002A222946204684F830500AF0C1FD012334
:1013C0006370A3701B23E380238140F203236381B6
:1013D0001F23E38108232374EFF3108472B600F017
:1013E00031FD2CB962B62046D6E76FF01500D3E781
:1013F0002846D1E7D00D00205113000010B5002879
:1014000042D1244C94F83030032B3AD059B1002A01
:101410003DD00239052937D8DFE801F0031428361A
:101420002B2E137863700020FFF7F0FE0028B7BF63
:101430000123022384F830306FF00B00A8BF84F83A
:10144000303010BD137913B3537903B31188FB29DE
:101450001DD81A2953881AD91B3BE02B17D81368BB
:10146000C4F806300C4B92889A80DCE71378A3709E
:10147000D9E71388E381D6E71388FF2B07D82374B5
:10148000D1E74FF0FF30DCE76FF02C00D9E76FF0C9
:101490001500D6E7D00D0020D60D0020F8B50D467A
:1014A000064630B329B311F0070422D1124F97F842
:1014B0003030012B02D16FF00B00F8BD032B02D1AD
:1014C0004FF0FF30F9E700F09DF80028F8D02846EB
:1014D000FFF79CFE0028EEDB0EF0E4FC30462146D0
:1014E00002F05CFBFFF734FF032387F8303020461F
:1014F000E3E76FF01500E0E7D00D002010B5074CD2
:1015000094F83030032B03D102F060FB03F066FB4C
:101510000CF02CF8002084F8300010BDD00D002015
:1015200050B1074B03F1140253F8041B40F8041B9D
:101530009342F9D1002070476FF01500704700BF4B
:10154000811D030010B5074B93F830403CB902F001
:10155000EFFA0120044900F09BF9204610BD4FF03E
:10156000FF30FBE7D00D0020E911000010B5074B5C
:1015700093F830403CB902F0EFFA2046044900F0FD
:1015800087F9204610BD4FF0FF30FBE7D00D00205B
:10159000C511000010B5054B93F830401CB902F09E
:1015A00093FA204610BD4FF0FF30FBE7D00D00202E
:1015B00010B5054B93F830401CB90DF0D6F8204615
:1015C00010BD4FF0FF30FBE7D00D002010B5054BEC
:1015D00093F830401CB90DF0CBF8204610BD4FF009
:1015E000FF30FBE7D00D0020024B02681A6000209C
:1015F000704700BF040E0020014B1B68184700BF56
:10160000040E0020024B1868003818BF01207047F4
:10161000040E00202DE9F743294E0446071D2848F3
:10162000376003F0F3FA0228054607D12449204623
:101630000BF0EFF9284603B0BDE8F083042838D159
:101640003378072B18D13E2000F050F878B9F378A2
:10165000327901A943EA02236846ADF800300BF065
:1016600051FC0028DBD053210820FFF737FE05206E
:1016700000F07CF80028EAD0314620460BF02EFA24
:10168000B0F5817F01D37221EEE70028C7D094F82E
:10169000008094F80290404600F028F80028BED060
:1016A000B8F13E0FC6D1484600F060F80028C1D11D
:1016B000B5E70828BED1024920460BF0D9F9B9E7B1
:1016C000080E0020074B4FF0FF3141F6FF72C3E9CF
:1016D000001205490022C1E900221F21C3E90212BC
:1016E000704700BF000000204C0E00203F280CD89F
:1016F00001380B4BC0F3421200F01F0053F82230A8
:1017000023FA00F000F001007047FF2806D04038AF
:10171000C0F34212034B00F01F00EFE701207047B7
:10172000000000204C0E00200146074B006849686D
:101730001A4603C240F48C221A6041F0107242F43F
:10174000FF625A60704700BF000000200246024B53
:101750000068516803C370474C0E00200246024BDC
:101760000068516803C3704708000020FD281ABFB5
:1017700000F1FF30C0B23F20054B420903EB82036A
:1017800000F01F009B6823FA00F000F00100704792
:1017900000000020014B1860704700BF540E00206D
:1017A00010B5FFF78FFF0CF0A9FB034B1B68044635
:1017B00003B19847204610BD540E00200B880288C4
:1017C000F0B5C3F30E049EB204F11803C57CC35AEE
:1017D00002352A442B4497B213FA82F3013B428824
:1017E000B3FBF7F313FB07439BB29A42044A93BF40
:1017F00022EA0603324013439BB20B80F0BD00BFC8
:101800000080FFFF4A1E062A08B50346084604D892
:101810004FF4D1711520FFF761FD094A914202D9B9
:1018200040F2A311F6E711B903B1196008BD2BB15D
:101830001B680022C3E901211A1D1A600430F5E774
:10184000FAFFFF7F10B5114B00EB41041A78638952
:10185000B3FBF2F303FB0223013A1A44B2F5706FB3
:10186000027928BF00231A448378B2FBF3F01944AD
:1018700003FB1020091AB1FBF3F003FB1013134410
:101880006FEA43436FEA5343638110BD580E002053
:10189000024B03EB80035960704700BF580E0020D5
:1018A0002DE9F04F10F0070A85B0054604D040F24C
:1018B00061111720FFF712FD554F07F10C06B146D5
:1018C0000446B0464FF0010B57F8043B8DF80BA0CF
:1018D0003BB101A898479DF80A30082B01D9E821AF
:1018E000E7E79DF80B1081BB05B13160B94506F102
:1018F0000406E9D12DB3DFF81CE100238EF8003097
:101900001E46022258F82200013A60B190F804A065
:101910008178BAF1FF0F66D14FF000078E42077150
:101920003CBFCEB20123511CECD10BB18EF800604C
:10193000022640F6FF6A58F82670002F65D1013E56
:10194000F9D2601B05B0BDE8F08F9DF80AC0BCF16C
:10195000020FE64601F1050238BF4FF0020E0EF10C
:10196000FF3004EB42040444CEF100002040BDF8F7
:1019700008406444013CCCF1000C04EA0C04B4F5CA
:10198000803F4FEA420301D3F82192E775B1C31AB1
:10199000336099701C8083F803B09DF80C201A7195
:1019A000019A1A814FEA124CA3F806C004FB010405
:1019B0009CE758F82C90B9F1000F06D099F804B0C4
:1019C000D34504BF99F802904F440CF1FF3CBCF1A1
:1019D000000FEEDA3944FF29A0D90BB18EF8006070
:1019E00040F2271165E794460027F0E707EB410333
:1019F0003846A3F80AA0FFF725FF09F10109BB78D3
:101A00005FFA89F18B42F1D899E74FF00009F6E7C8
:101A10005C0E0020580E0020F8B54FF6FF730380CF
:101A2000184B03EB810305461869B8B18678037932
:101A3000B3FBF6F206FB1233DBB219460A1D00EBCC
:101A40004202B2F902705488002F09DB0131B1FB68
:101A5000F6F206FB1211C9B28B42EFD10020F8BD9D
:101A6000FF29FBD0C4F30E03C4782B8024B94FF4B4
:101A7000D5711720FFF732FC5380BDE8F8400BF01A
:101A80005EBC00BF580E00201D4B03EB810370B5F8
:101A90001C69054644B3030404D54FF4DC711720D8
:101AA000FFF71CFC014620460BF02BFCFF280146EB
:101AB00004D02046BDE870400BF041BCA078B5FBD7
:101AC000F0F300FB1353DBB219460A1D04EB420688
:101AD000B6F90260002E09DB0131B1FBF0F200FB28
:101AE0001211C9B28B42F0D1002070BDFF29FBD08A
:101AF0008B4204EB42021CBF0023E3705580D8E701
:101B0000580E0020094B03EB810310B51C690146F8
:101B100020460BF0F6FBFF28014604D02046BDE826
:101B200010400BF00CBC002010BD00BF580E002070
:101B3000F8B5104B03EB810307461C6901462046AC
:101B40000BF0DFFBFF28054611D0E688238953EA16
:101B5000064606D0014620460BF0F1FB014638460A
:101B6000B04720462946FFF76DFE0020F8BD05204E
:101B7000FCE700BF580E002038B50E4B827903EB0E
:101B800082030446186908B9052038BD8278E179D6
:101B90009142F9D24B1CE37100EB41035D89B3F92B
:101BA0000A30002BF3DBA5800BF0C9FB206000207E
:101BB000EBE700BF580E002070B5044610F003009C
:101BC0000E4603D04F211820FFF788FBFFF71AFEBF
:101BD000054624B1034831460460FFF713FE28464A
:101BE00070BD00BF740E00202DE9F14FDFF870B01A
:101BF0009DF828A09DF82C901E46DBF80030074683
:101C00000D4690461BB961211820FFF767FB52462D
:101C1000092140460BF0E5F94A4684B209213046D5
:101C20000BF0DFF914FA80F1DBF800000BF03EFB5B
:101C3000386018B9286001B0BDE8F08F04442C600A
:101C400038685346414609220BF084F928684B4610
:101C50000922314601B0BDE8F04F0BF07BB900BF5F
:101C6000740E002070B50E4604460BF0CDF9054603
:101C700030460BF0C9F9044B2A1821461868BDE814
:101C800070400BF037BB00BF740E0020014B18688A
:101C90000BF000BB740E00201F2AF8B50446134653
:101CA0000ED89200033222F00303B3F5803F2DD209
:101CB000184DACB1A00710D05F210920FFF70EFB33
:101CC000FF2B4FEA420204D9FF339A42A8BF1A46BB
:101CD000E8E77C2AB8BF7C22E4E729706C602B819E
:101CE00022F0030201EB81031204D80001276B6884
:101CF000120C0025EEB28E4200D3F8BD14B12618A6
:101D00001F705E60104401352833F3E74FF0FF3059
:101D1000F3E700BF780E002038B5144A14785368F2
:101D20000021C8B2844203D8AB210920FFF7D6FABC
:101D30001846013105782833002DF2D0002181703A
:101D400001241289447044688161C161920800F1E4
:101D50002001051D21F8022B994245F8044B14443B
:101D6000F8D100234361037038BD00BF780E002016
:101D70002DE9F8434B7880460C4602F0040602F049
:101D8000FB07D3B1DFB12E4BD4F804901D89B7BB4C
:101D900001236370AD08A761E76104F120034A469F
:101DA000211D04F1280023F8025B984241F8042B1E
:101DB0002A44F8D10023636101E0002FE3D0FF2320
:101DC000A370002E18BF0226A3191B7D032B03D17D
:101DD000022F1CBF0136F6B2A31901221A7506F1B3
:101DE0000C0204EB8606002324F812307268A370FC
:101DF000C8F80020A8F804304046BDE8F883002168
:101E000014226170A0180AF09BF8B5F5FF7F0FD27D
:101E10006B08ED1AADB209EB0502C4F804902584F5
:101E2000A2606384C4F80C90A5842261E384C6E7B1
:101E3000B5F5EE6F4FF0FF03EBD940F27265EAE7BC
:101E4000780E0020134B012200214FF0FF309A60E2
:101E5000C3F80012C3F80803C3F80015C3F804253B
:101E60009A60C3F80803C3F80015C3F804250A49AB
:101E70000A4A03F580334FF40040C3F80825C1F83F
:101E80008000BFF34F8FBFF36F8FC1F88001C3F89D
:101E90000825704700F0004000E100E00000F63F38
:101EA0000A46192302F8033B0448C368C1F803300B
:101EB0000369536043699360704700BF840E00203C
:101EC000024B5A8C02435A845B6A1847840E0020E6
:101ED000014B00215B6A1847840E002010B5154C99
:101EE00005F080FF05F018FB208DFFF7F1FF237E42
:101EF00063B12246104952F80C3BE36063685360BB
:101F000004F11900A36893600DF0E3F80B4B228DE8
:101F100093E8030003F0F2FB236B188803F018FB2F
:101F2000A36B94F8341094F835009847002384F894
:101F30003C3010BD840E0020A11E0000B00E002019
:101F4000034B93F83C300BB1FFF7C8BF704700BF9D
:101F5000840E002070B51E4C256B636C236495F8CD
:101F60008C30064694F848000BB10430C0B295F8A6
:101F700069102EB9FF2803D195F868308B4201D043
:101F800005F0CCFD95F88C30E3B1E06C05F0CAFFAC
:101F9000012384F86830D5F8E8302366E16CD5F881
:101FA000EC30206C636605F06DFA16B9304606F029
:101FB00001F895F86810002006F046F8022384F82E
:101FC0003C3070BD206C05F0ADFF05F0A5FAECE7E4
:101FD000840E002008B5094B93F83C20022A04D057
:101FE00040F22D212720FFF779F9DA7A42F0010239
:101FF000DA72BDE80840FFF771BF00BF840E002011
:1020000010B50E4C626F137803F00303032B04D159
:10201000D378022B01D1002010BDA06F0BF07DF80A
:102020000028F9D1636F1B7803F00303032BF2D070
:1020300001F0B2FF80F00100C0B2EDE7840E002095
:102040002DE9F743434C94F83C30256B012B0646B1
:102050000F465FFA83F804D040F29D412720FFF736
:102060003DF995F87C303BB1002185F87C100420C7
:10207000FFF726FF85F87E80616F0B7803F003037E
:10208000032B05D195F8823013B90220FFF718FF12
:10209000626F137803F00303032B02D0537823BB42
:1020A000012385F8823095F88C30C3B1236BD5F8C5
:1020B000E82093F8690022664FF00108D5F8EC207B
:1020C000626684F868800BF053FA94F848902249CD
:1020D00000220346009240464A4605F08DF936B18B
:1020E00003B0BDE8F043FFF7F9BE0223D9E7002FA4
:1020F000F6D0E36F304698470028F1D094F834309A
:10210000002BEDD194F88030DD06C3F3001001D52B
:10211000FFF776FF636CD4F884201B78C3F30013B9
:102120002AB9B4F8882013B1B2FA82F35B09628C41
:10213000910709D5636FDB78022BD1D1002003B062
:10214000BDE8F043FFF706BF002AC9D10343F5D12C
:10215000C6E700BF840E0020D40E002010B5064B49
:1021600093F83C2002F0FF0422B91C7603F0BEFA7B
:10217000204610BD0C24FBE7840E00200A4B0B4ABE
:1021800070B506460D461A60FFF7E8FF18B1DE216C
:102190002720FFF7A3F8064C012104F18A000CF078
:1021A00077FE6664E56470BD480000206829000081
:1021B000840E0020024B012283F8AC20704700BF40
:1021C000840E0020F0B57D4C85B002AE86E8030099
:1021D00094F83C100A9F01F0FF0511B90AB103B150
:1021E00027B940F26D112720FFF778F896E8030031
:1021F00004F12C0C8CE8030084F8AC5084F83450C3
:1022000084F8AD5084F8355084F8AE5084F8AF505F
:1022100065842585256BE3676262A76305F0BCFCD6
:1022200005F07AF995F9700005F044FD686A05F04B
:102230006BFEE86905F044FD95F89C0005F066FD2D
:10224000236B93F89F310BB105F094FC95F869204E
:102250009D21012005F0B2FD594B186805F05AFE8A
:102260002B69A367574A6B69C4F8B03005F58071D4
:1022700005F1F00353F8040B42F8040B8B42F9D13B
:10228000D5F80021C4F869205A684F4B5A60236B77
:1022900093F88620A2F12501012993F868100E46D3
:1022A00003D993F8870025285FD193F846322BB1E4
:1022B000012E03D0012B14BF0226012605F13007A1
:1022C000314638460CF095FF31460CF03EFCAB8FA2
:1022D00095F86910834228BF0346384684F8B43025
:1022E0000CF070FF95F8691095F88C70B5F84460A3
:1022F000042908BF03210CF028FC0FB9043080B278
:10230000B04228BF304695F88C30C6B284F8B5602C
:1023100084F84860A3B1D5F8E83095F869002366E1
:102320000127D5F8EC30636684F868700BF020F96B
:1023300000220346009223493246384605F05CF8F5
:102340000120FFF707FE002323606360A360B5F858
:10235000803063802B88238095F89C302371EB6E4E
:102360000BB101221A6005B0F0BD203A012A0CD849
:10237000232893F826210AD012F0010319D19207DD
:102380009CD5012918BF022698E723280DD193F880
:10239000262193F86130134013F001020BD19B0703
:1023A0008CD5012908BF0E46ECE7032908BF042697
:1023B00084E71E4682E7164680E700BF840E0020B1
:1023C00048000020D40E0020ED0E002008B50C4B74
:1023D00093F83C201AB9BDE80840FFF77FBD93F899
:1023E0003C20022A04D040F20F212720FEF776FF7E
:1023F0001B6BD3F8B801BDE8084005F0ADBD00BFC8
:10240000840E0020014B1876704700BF840E002018
:10241000014B93F8AE007047840E0020024B188DDC
:10242000C0F3C020704700BF840E0020014B93F81A
:10243000AD007047840E00202DE9F3411E4D820748
:102440002C6B06460F4622D5D5F8843023B940F2CE
:102450008E412720FEF742FFB5F88820296C1846E8
:10246000033291F8018009F0D7FD0DF1020201A9B4
:102470002864D5F8B0000AF003FF01980AF0EAFEDC
:10248000012238604146D5F8B0000AF090FEF3070B
:102490000ED5D4E93A32013342F10002C4E93A32AE
:1024A00094F88430012B0CBF0023012384F884307E
:1024B00002B0BDE8F08100BF840E00202DE9F04F8E
:1024C000AB4C002387B0CDE9043394F83C30276B44
:1024D000022B81468A4604D040F211512720FEF794
:1024E000FDFE238D590606D44020FFF7F1FC238D15
:1024F00043F04003238597F88C30B9F1000F00F0CA
:102500002781A3B105F020F888B9236C5A7872B1FD
:102510001B7897F88420C3F3C0039A4207D10123A4
:1025200084F83530FFF7DAFC07B0BDE8F08F236C94
:102530005978A4F8881009B3D4F8B0000AF00EFE58
:10254000C4F88400238D97F8832043F40073238517
:10255000236C1B78C3F380039A4200F0BA80256B8A
:1025600095F88230002B3DD0022B11D1A06F04A929
:102570000AF095FD28B940F20541AFE7C4F8841090
:10258000E0E7D5E93832013342F10002C5E93832DB
:1025900095F87E30002185F8821023B185F87E10F1
:1025A0001020FFF78DFC95F87D309BB1002685F853
:1025B0007D6001F0DBFC10B940F21C418EE7314632
:1025C0000820FFF77DFCD5E93832013342F10002E3
:1025D000C5E9383295F88330012B0CBF0023012365
:1025E00085F88330238D43F4006323854FF0000B7F
:1025F000216C97F884200D78C5F3C0039A4240F00F
:10260000998005F00305032D266B64D0002D6DD154
:1026100096F88430013B18BF012386F88430236C80
:102620005B7833B1D6E93A32013342F10002C6E9B0
:102630003A3297F88B309BB1D7F8E03097F86800C2
:1026400023660026D7F8E430636684F868600AF0F1
:102650008FFF484900960346FB22304604F0CCFE2B
:10266000BAF1000F40F08880628C94F8AD30120708
:1026700003D5626FD278022A7ED0012B7CD8E36F1B
:1026800001209847002877D094F83480B8F1000FE3
:1026900072D1266B94F8483096F88C208DF80D8016
:1026A000002A40F0B480FF2B96F8681003D196F80A
:1026B00069308B4202D0FF2005F030FA96F8823064
:1026C000032B00F23B81DFE813F0A500D6002001C8
:1026D0003101CB468CE7238D012043F4805386F8EB
:1026E0007C0023850025FFF7EBFB91E74D78002D5B
:1026F0008ED0238D96F88C5043F48053238505F0BB
:10270000C3F9042894F8B53006D1002D14BF1B225C
:102710001F22934228BF1346226C52789A420BD84C
:10272000D4F88450002D84D094F8AC3073B12020BC
:10273000FFF7CEFB00257CE794F83430012043F00E
:10274000100384F8343006F03DFCF3E74D465FE7B4
:102750000BB104F035FF94F8AD30013384F8AD309F
:10276000238D002543F480632385AB4661E700BFDA
:10277000840E0020D40E002005F086FC4FF0010AE4
:102780001DB105A90220FFF757FEBBF1000F0DD0C8
:10279000B4F80720B4F805301343B7F8802013438A
:1027A0001EBFB4F809300133A4F80930B9F1000FA5
:1027B00000F0CC80B4F805300133A4F805300023D4
:1027C00084F8AD30644802F0B1FE049830B10AF0EC
:1027D00041FD216B0022027202F05CFA059B33B1CD
:1027E000216B00221A720C22059802F021FABAF12C
:1027F000000F7FF497AE238D1B063FF595AE80202A
:10280000FFF766FB238D43F0800323858CE60433BA
:10281000DBB248E794F8B430ADF80E304F48A6F874
:10282000583001F093FB50B1616F4FF48070FFF7A7
:1028300047FB012386F87D3084F8AF301DE0A06FA0
:102840000DF10D020DF10E010AF006FC606790B16A
:1028500096F8C7307BB99DF80D302BB90380837093
:10286000606F01210CF014FBBDF80E10606F0CF0CE
:10287000D9FB0123E0E73A4B636796F88330626F38
:10288000DB0003F00801137803F0F3030B4396F821
:102890008410890001F004010B4323F0100313702E
:1028A000FFF7AEFB0028606F037818BF4FF01008E9
:1028B00048EA030880F8008096F88B30002B40D05F
:1028C0004378002B3DD0E06C05F02CFB002384F80E
:1028D0006830D6F8E0302366616FD6F8E430E06CFB
:1028E000636604F0CFFD96F86910012005F0ACFB9B
:1028F000626F1188A4F8801091781A4A012384F835
:10290000AE30917084F83C303AE7B6F85830A06F9A
:10291000ADF80E300DF10D020DF10E010AF09CFB29
:1029200060670028A5D140F2CD21D7E50B4801F022
:102930000DFB00289DD140F2D721CFE540F2E521E3
:10294000CCE505F0EFFA04F0E7FDCCE7B4F807308A
:102950000133A4F8073035E7B00E0020F80E002050
:102960000E0F0020040F0020D51F0000BD24000022
:1029700041200000411F00000B2808B504D940F297
:10298000F2310620FEF7AAFC014B33F8100008BD17
:1029900018D902002DE9F04F8BB00446154602937A
:1029A000894690F869B00BF02AFF064694F8A0011A
:1029B000FFF7E2FF94F887300393064485F00103A4
:1029C000B6B2059385BB94F8E431032B2CD1039B5D
:1029D0000D2B29D1B4F844324B4525D1D4F8EC3134
:1029E000C4F8D831A369B4F8BC21C4F8DC31B4F818
:1029F00032321344C4F8E031204604F01DFCD4E91F
:102A00009223A262B4F84622A285D4F85022226210
:102A100041F64B529342A3618CBF0023012384F8FB
:102A20007230022384F8E431B4F83072B4F8808054
:102A3000A9EB07073FB204F50073A9EB0808002FC4
:102A400004930FFA88F86EDAD4E986234746C4E97E
:102A50008A2301230493CC4B1B7803F0FF05002B42
:102A600054D006F027F9054600284FD0B4F8D031ED
:102A7000012B6DD994F8E431022B69D094F8FA5106
:102A8000002D65D194F8A001FFF776FF94F8E431AA
:102A900000F5C866012BB6B2D9B24CD194F88A3091
:102AA000D4F828A0032B40D1D4F8DC51554431464A
:102AB000D4F8DC0106F0C2F8D4F8D831C4F8D80153
:102AC000A0EB030AD4F8E0313146284603FB0AFAAA
:102AD00006F0B4F8D4F8E851C4F8E801451B3146D3
:102AE000A06906F0ABF8AA44B4F8BC51D4F8E031C0
:102AF0004544ED1BDB432B44D4F8EC51451B05FB4F
:102B000003A50123C4F8EC0184F8FA3194F8E43108
:102B1000DFF874A2032B00F28E81DFE813F01B00B4
:102B200016016B003701029B94E728460CF035F83C
:102B300000EB0A05BBE7A069314606F07FF8B4F860
:102B4000BC51D4F8EC314544ED1BC31A5D43D8E7C2
:102B50000025DBE7012100200CF01FF88046A06A69
:102B60003146404406F06AF83146C4F8E801A069ED
:102B700006F064F807A9C4F8EC0108A805F08CFA7F
:102B8000079B0093D4E98A01DDE9082308F028FDBA
:102B9000834620460AF010FDD4F83432A66A94F831
:102BA00069001E4405F0BEFBD4F8E811A6F19407B5
:102BB0007F1A00F523404FF47A734744A130B0FBED
:102BC000F3F0A38DA7EB0B0730313F1A03EB410164
:102BD00094F869000AF0DCFCD4F83432FB1A223095
:102BE000B3F5917FCAF8040058D240F2D2413020A8
:102BF000FEF774FBA36AD4F8DC013146184406F0F2
:102C00001DF83146C4F8E801A06906F017F8C4F8C9
:102C1000EC0120460AF0D0FCB4F8BC31A66AD4F826
:102C2000DC71002B40F08D80029B002B00F089802E
:102C300094F8690005F076FB3E44D4F8E871943EC0
:102C4000D4E98623F61BD4F8207280463E4494F8DB
:102C50006900B61A05F066FB4FF47A7300F2E737A5
:102C600008F52340B7FBF3F73744A130B0FBF3F08E
:102C7000D4F8E811D4F8D831D4F8E021303102FB8F
:102C80000311A38D3F1A03EB410194F869000AF088
:102C90007FFC0123CAF8040084F8E431A6696FF4CC
:102CA000F4731E44D4F8EC31F61ADAF804309E427C
:102CB00028BF1E46D4E98A327F1BDF1942F1000289
:102CC0004FF00008C4E98472C4F8B86184F8008247
:102CD00004F130000CF074FAB4F8A811A4F83092A2
:102CE000D4E98423A1EB09090FFA89F9C145C4E9A4
:102CF0008A23C8BF022384F80882C8BF84F8083238
:102D0000039B06440D2BC4F80462029B00F09680DE
:102D1000002B40F0948094F8E431002B00F0AD805B
:102D2000A169D4F8EC3104F50070C91A0BF0DCFE8F
:102D300080B2002800F0A180149B03B1188001200C
:102D4000ABE0D4F8E801374492E7D4F8EC21A3696A
:102D5000D4F8E001D4F8D8119B1A5F43B4F8BC3121
:102D60009844C3439844D4F8E831303301FB00332E
:102D7000A18D94F8690002FB083301EB43010AF0CE
:102D800007FCCAF8040089E73C0F0020A369D4F8C7
:102D9000EC219B1A5F4394F88630252B03D094F8DE
:102DA0008730252B0AD1B4F84432A9EB03031A0467
:102DB00004D494F84732002B18BF9B46049B63B39E
:102DC000B4F8BC314BBBD4E98623D4E988018242F4
:102DD0008B4102D340F2265109E794F8690005F0CF
:102DE000A1FAD4F820220646D4E98601A2F1940380
:102DF0001B1A3B4494F86900049305F093FA049B72
:102E000000F2E7374FF47A7206F52340B7FBF2F78A
:102E10001F44A130B0FBF2F03F1AB4F8BC11D4F853
:102E2000EC31414459433031490058460AF0B0FB77
:102E30001B4B586032E740F23E51D8E6EBB1B4F894
:102E4000D01121B3B4F8D22194F8D431A4F8D2210E
:102E500002FB0333994202F101000EDD94F80832BF
:102E60005BB1002384F80832A4F8D20101F0A8FF76
:102E700000F00700013084F8D40194F8FB0104F558
:102E8000007107F087FC20B940F28751AFE60A468F
:102E9000DAE7059B84F8F83100200BB0BDE8F08F2D
:102EA0003C0F00202DE9F04104460D46164690F8EF
:102EB000F03003F0FF071BB10C273846BDE8F08166
:102EC0000146454807F01AFB20288046F4D05822D6
:102ED000394604F1C80009F033F884F8C880C4F812
:102EE000CC50FF2384F8F03035B101F081FF00F0C1
:102EF0000700013085F8D40102234FF00008A4F840
:102F0000003184F8F88005F0EBFE00F19E052046C4
:102F10000CF008FEADB2014670B30BF070FC00F58A
:102F2000CD6189B2304605F089FE3044C4F8FC001A
:102F30000DF0D1F8281841F10001C4E94201012047
:102F400084F8D000A4F826800CF0AAFEE53E361ADC
:102F5000C4F8D4604FF0FF326FF00043C4E944235B
:102F600094F8C80004F1F80107F014FC48BB4FF4D2
:102F7000E5713020FEF7B2F920460CF0F7FCDFF8DF
:102F80005C80E530C4F8FC00B8F8080048B1E08C7B
:102F900038B101F02DFFB8F80830B0FBF3F202FBB6
:102FA000130005440DF097F82D1841F10001C4E914
:102FB0004251002ECED0751941F10001C4E94451AF
:102FC000CEE7D4E942230021C4E93823C4E93A23F7
:102FD00020460CF0C4FD70E75FD800003C0F0020D5
:102FE000F0B5002385B0CDE9003301238DF806301C
:102FF0006846FEF7C1FD70B11B4E0123B372002776
:10300000CDE9027702A8FEF7B7FD0546A8B1002377
:10301000B37205B0F0BD00980AF0DBFCE8E790F869
:10302000FB0108F09BF994F8FB0184F8E45107F0E8
:1030300099FA202384F8FB31E2E7029B002BE1D0D0
:1030400093F8FB21202ADDD018884FF6FF739842B1
:10305000DDD02946FEF756FD04460028DFD14FF4A7
:103060009A713020FEF73AF93C0F0020054B002200
:103070000121DA7219709A7242F210721A81FFF706
:10308000AFBF00BF3C0F0020014BD872704700BF9C
:103090003C0F002008B504F0FDFC044BDA688242C6
:1030A0002ABF987A002080F0010008BD3C0F002064
:1030B0002DE9F7430446062900F2C480DFE801F059
:1030C000047A67777E83BD00D0E98623D0E9880142
:1030D00082428B4149D294F8FA31002B45D094F8C2
:1030E000E431032B41D194F869900BF088FB06463C
:1030F00094F8A001FFF740FCD4E98623D4F82072AD
:10310000D4F8B851804606444846BF1A05F002F983
:103110002D1A484605F006F900F523404FF47A735E
:10312000A130B0FBF3F02B1AA3F17402B6B252082F
:10313000D43B08F5C8689D3273431FFA88F8B3FB87
:10314000F8F360335908A2EB53039F4202D30A44B9
:10315000974201D905F0B4FDA069314605F06EFD36
:103160000023C4F8EC0184F8FA31384B9B7A03F061
:10317000FF0263B9B4F8AC11009201232046FFF7B7
:1031800009FC38B14FF4DA613020FEF7A7F80423C8
:1031900084F8E43104F078FE07F054F8B4F88020A5
:1031A000A4F8F6210023A4F8323284F8F93103B0F0
:1031B000BDE8F083032380F8E431F8E70CF0DBFE90
:1031C000C4E98801F3E78569D0F8EC31DFF87C8049
:1031D0009D4288BFED1A98F80B3098BF00251BB9A7
:1031E000036B9D4228BF1D4604F13000D4F8B8712E
:1031F0000BF0E6FF0744022007F034FFED1B25EA41
:10320000E575854228BF05460221284607F07EFF66
:1032100000B92F4440F2D312394620460CF021F871
:10322000D4F8B831C8F80C00A069184407F0DCFEE7
:103230000028BCD140F27E31A6E703B0BDE8F043E0
:103240000AF0BAB940F284719EE700BF3C0F00203B
:103250002DE9F84306460C4615467ABB04F01AFCE5
:10326000D4E94289074684F8D05084F8F05001210F
:10327000D4F8CC0001F0FAF9D4F8CC00C0E9868982
:1032800094F8C83080F8FB31C0E98A89C0F83472FC
:103290000AF097FA20B14FF4E2613020FEF71EF8F1
:1032A00004F0F2FD06F0CEFF074994F8C80032465C
:1032B00005F078FE28B940F29771EEE740F2AE7162
:1032C000EBE7BDE8F88300BFE1D50000014B1881B2
:1032D000704700BF3C0F0020F0B5070CA7F5AA42CD
:1032E000144B543A012A03EA90231FD927F40040D3
:1032F00042F6AA22801A18BF012000221621164683
:103300001F2487EA060562EA0505013510D0DD03B2
:10331000ADB245EA5606E503ADB2013945EA5202BF
:103320004FEA53034FEA5404EBD1F0BD0020E4E729
:103330000020FAE7E0FF3F00304BF0B55A88B0F8C4
:103340005C70B0F85A609D88974228BF1746964235
:1033500028BF16461B2E85B00C462ED0B5F5A47F8F
:103360002DD040F648039D4201A928BF1D460AF012
:1033700092FCBDF80A309F4228BF1F46BDF80C30B2
:10338000E780AB4228BF2B462381BDF806309E4222
:1033900028BF1E46BDF8083066809D4228BF1D46E6
:1033A000A580FF232370E3881B3B9BB2E02B08D949
:1033B00040F219613920FDF791FF1B2FCED105B0E6
:1033C000F0BD63881B3B9BB2E02B02D940F21B612E
:1033D000F0E72389A3F5A4739BB2B3F5E06F02D99C
:1033E00040F21D61E6E7A388A3F5A4739BB2B3F591
:1033F000E06FE4D940F21F61DCE700BF4C0F002012
:1034000010B501210020FEF77DFB044670B90121B3
:10341000FEF73AFB044620B940F24D313920FDF762
:103420005DFF034B93F906100CF068FA204610BDBF
:103430004C0F002008B50BF0EFFA00F059FF00F038
:10344000F5FB0BF01EFE01F0B1F902F0DFF801F020
:10345000C5F9094B00221B214FF4A47098801A80F3
:103460005980DA71054B064818605A829A7599801E
:103470005A749A8208BD00BF4C0F002074130020BC
:1034800003021B00044B41F64C52C3E902221B22EB
:103490001A74FFF7CFBF00BF741300202DE9FF415E
:1034A000354DAB68044640F8303F0AF0C9FA06468D
:1034B00000F0ACFB2B7C84F83830304B668710F082
:1034C000200F1B681DBFAA886988A4F85A101B2208
:1034D00008BFA4F85A20A4F85C201BB194F970101E
:1034E00020889847AE7CEF7CB5F8148041F64C53A9
:1034F000A36116B900F090FB064687BB00F08CFB79
:10350000074676B368B303A920468DF80C608DF8A2
:103510000D70ADF80E800BF03CFB01236A88E3854B
:10352000AB886978019103332978009103329BB20B
:1035300092B204F1140104F11000FEF755FB236967
:1035400013B94FF4BE6114E0636913B940F2F1514D
:103550000FE0002004B0BDE8F0810920FAE7002E5A
:10356000D1D120880021FEF7E3FA0028F5D040F2FF
:10357000D3513920FDF7B2FE741300204C00002017
:10358000F7B505460E460CF0ECF9002874D0284635
:103590000CF0C8FA40B1B6F80130013B7F2B03D9DB
:1035A0001224204603B0F0BD28460CF0BFFA08B93B
:1035B0000C24F6E728460AF0F8FA0028F8D1284645
:1035C0000CF08DF904460028F2D1284602F0D0FC18
:1035D0000028E5D0B6F80170F17842F21073284661
:1035E0005F430CF08CFA28460CF094FA014658B967
:1035F0003A462846FFF756FC04460028D1D041F64B
:1036000015213920FDF76AFE21460DF10600FEF76F
:1036100003FA064670B3214601F028F8BDF80630DB
:103620003380284631460CF08BFA28460CF084FA99
:10363000A0B9296A28460CF081FA01463046FFF706
:103640002DFF04460028ACD13A4631462846FFF704
:1036500029FC044620B141F63821D2E70121EDE7EB
:10366000064B9B68002B9CD0024606F58D713046B8
:10367000984796E70D2494E7422492E74C0F0020E8
:10368000034B5A8802801B7883700020704700BF6C
:103690007413002037B583781A2B054609D8042BFC
:1036A00005D9012202FA03F3134A134205D1122469
:1036B0001AE0292B01D03B2BF9D12888B0F5706F87
:1036C000F5D269460BF0F7F988B9019B93F81821F8
:1036D00002F0FF046AB9AA7883F81921FF2283F85F
:1036E000182168460BF0A8FC204603B030BD022428
:1036F000FAE70C24F8E700BF200038040188A1F1A4
:103700001B039BB2E02B0CD84288A2F5A4739BB29A
:1037100044F24810834204D8034B002059809A8019
:1037200070471220704700BF4C0F0020034B5A888F
:103730009B88028043800020704700BF4C0F002010
:1037400038B504784278857804F0010352EA030121
:1037500004F0020401D1112038BDBCB9002DFAD00B
:10376000002B08BF144601E00024254620460AF03D
:103770005DFA0028EFD028460AF058FA0028EAD06F
:10378000054B00209C74DD749882E5E7002BEBD19B
:1037900014461D46EAE700BF7413002013B50088E5
:1037A00069460BF088F918B10224204602B010BD1A
:1037B000019A92F8E431DBB292F8A820002AF3D102
:1037C00013F0FB0FF0D0019890F82A310BB13A2496
:1037D000EBE790F8D23003F0FF04002BF7D190F81C
:1037E000C9309B0706D1FF2380F82A3168460BF0C9
:1037F00023FCDAE70249CA300BF06BFCD5E700BFC7
:10380000DDF70000F0B50778EF2F85B004460D46D0
:1038100003D91225284605B0F0BDB0F80130ADF847
:103820000C309DF90C209DF80C30002AF1DB9DF83E
:103830000D209107EDD1DA063FD49E0603F0030276
:1038400038D5002AE5D11807E3D46378190711D4D5
:103850002179E278E07942EA0122617942EA014283
:10386000A17941EA0021207A41EA00418A42D0D878
:103870001F2ACED9627A013A062ACAD8A27A032A26
:10388000C7D813F0040102D1023A012A03D8E27A20
:10389000012ABED811B9A27C032ABAD813F01001AC
:1038A000227D19D0012AB4D1227E012AB1D8B1B922
:1038B0001125AFE7032AC6D1ABE713F0600FA8D1FB
:1038C00003F00F0203F00703052BBED0931E012B5C
:1038D000BBD9002A9DD1B8E7022AE5D199E7DA07DA
:1038E0001FD46378227D03F0180108291ED1022A13
:1038F000DED11B0709D4E279A37943EA0223227AB5
:1039000043EA0243B3F5804FD2D8BFB20121384613
:10391000FEF7F8F8064678B10AF047F9B8B10C2579
:1039200078E700F035F90028DBD1C1E7022AE0D0C2
:10393000227F002ADDD0BBE701213846FEF7A4F83C
:10394000064650B3164B93F906100BF0D7FF3046DE
:103950000CF0DDF821462870E07430460CF022F8B7
:10396000E37E0546002B3FF455AF00287FF452AFAD
:10397000316B02466846FEF7FBF9306B2A4601219F
:1039800009F046FD316B68460422FEF7F1F9306B11
:103990002A46294609F03CFD3CE707253AE700BFE7
:1039A0004C0F002070B50579042D8AB003465CD811
:1039B0004488B4F5804F58D82D48465D28440021EE
:1039C0004279857AC07BADF8001042F0100242EADD
:1039D000460242EA850242EAC00202F01F028DF866
:1039E0000020BDF80020ADF809201A888DF80B20C2
:1039F0008DF80E40120A240A8DF80D108DF8101063
:103A00008DF80C208DF80F405A7B8DF811205A79D3
:103A10008DF812209A79D3F807008DF81320B3F8A7
:103A20000B209B7B8DF81A307F238DF81B300123F0
:103A30008DF8081005908DF81D10ADF818208DF840
:103A40001C308DF81E3002A88DF81F108DF8201044
:103A50008DF823108DF824108DF821108DF8221088
:103A60006946FFF7CFFE0AB070BD1220FBE700BF2A
:103A700030D902000278034672B1427862B14288BE
:103A80001A2A09D982881A2A06D9044A00681060BD
:103A90009B88938000207047122070477413002089
:103AA000024B02689A600020704700BF7413002028
:103AB0000378A3F10A02112A9DBF024A0020137461
:103AC000122070477413002008B5052000F090F80C
:103AD00003F0E2FB014B024A9A6008BD4C0F002044
:103AE0003933000008B502F02BFAFFF7BFFABDE842
:103AF0000840014802F00EBA580F002010B50B4CD8
:103B0000012384F8023102F023FA0CF089F90AF05B
:103B100081FF04F203112046FEF730FB002009F07C
:103B200016FCBDE8104001F069B800BF580F002036
:103B300010B5064C064904F502700AF025FE04F59E
:103B400003700449BDE810400AF01EBE580F002063
:103B5000500000205800002010B5094C094904F518
:103B600002700AF011FE04F5037007490AF00CFE1A
:103B700004F504700549BDE810400AF005BE00BF19
:103B8000580F002068000020700000206000002016
:103B9000014B93F802017047580F002010B5074CF5
:103BA00001F008F8D4F808020AF0E6FDFFF76AFC15
:103BB00001F036F9012384F8143210BD580F0020AB
:103BC000014B93F814027047580F002010B5074CB2
:103BD000D4F80C020AF0D0FDD4F810020AF0CCFDA3
:103BE000FFF728FC002384F8143210BD580F002082
:103BF000C2080549012300F0070003FA00F08B5CBE
:103C000018438854704700BF10000020014BD3E9CF
:103C10000001704710000020034B1868C0F300201B
:103C2000400040F0010070471000002008B505F08A
:103C30004DF8084A002332F82310814205D302EBE5
:103C400083039B78044A137008BD01330C2BF2D117
:103C50000023F7E744D902006D11002010B5446835
:103C60002388A4F8683194F8683084F86711012B30
:103C700006D0022B04D04FF450710620FDF72EFB26
:103C800084F86A3194F86930012B01D0022BF2D10B
:103C900084F86B31044904F5AF700BF01AFA002375
:103CA00084F8243110BD00BF03E8000040680849D3
:103CB0000388A0F85A3190F8603080F85C3190F8B1
:103CC000613080F85D3100F251100BF0FCB900BF9B
:103CD00019E800002DE9F04F054685B008460C466E
:103CE0000BF089F9064620460BF07FF98046204606
:103CF0000BF07DF9834620460BF07BF96C6894F855
:103D0000873094F886A0232B07462FD104F187092A
:103D1000002E49D00BF0070B58460AF0CCFD78B3C3
:103D200094F8683098422BD094F82421012A0CBFD3
:103D300094F8262194F864201BEA020F34D0BAF1DB
:103D4000210F1DD094F861201BEA020F18D1461EE6
:103D5000F6B2032E05D8013B554ADBB2032B915D29
:103D60000BD940F21F210620FDF7B8FABAF1210F56
:103D700040F09A8004F18609CAE7D35C8B4213D8DD
:103D800008F0070108460AF096FDC0B394F86930C0
:103D9000834234D094F82431012B0CBF94F827319E
:103DA00094F8653019422AD194F82431012B15D1A9
:103DB0001E212846FFF752FFBAF1210F12D16B687E
:103DC000182283F80921092283F8862093F8C2304B
:103DD000002B3AD140F2B3217E20C5E7002384F8BE
:103DE0002431E9E70023284689F800300BF07BFAFC
:103DF0001821284605B0BDE8F04F0BF09CBA03AB84
:103E0000009320463B465A460AF060FD6B68044624
:103E100000BB93F82421012A19D101462846FFF757
:103E20001DFF89F800406B6803F18702914502D1BC
:103E3000002283F887206B6803F1870291454FF0D9
:103E400000042ED128460BF04EFA00202DE083F816
:103E50002401E8E7B3F88000A3F84472C0430744A4
:103E6000BFB247F6FD72974206D9282283F8A920EF
:103E7000284601F04FF9DEE793F887200D2A02D09B
:103E80000A3A012A01D82A22F0E79DF80C2083F88B
:103E900046229DF80D2083F84722252389F800301B
:103EA000C9E783F8C240D0E7022005B0BDE8F08F33
:103EB00074D90200044B002283F822204FF6FF72CF
:103EC0009A84DA841A8570476E110020054B9A8C0B
:103ED000824201BF002283F822204FF6FF729A84AB
:103EE000704700BF6E110020014BD884704700BF9F
:103EF0006E110020094A0346908C4FF6FF718842EC
:103F000006D192F82210012905D01A6001207047CD
:103F10000020186070470020704700BF6E1100201D
:103F2000064B93F82220012A1FBF0120DA8C83F868
:103F300022009A8408BF0020704700BF6E11002045
:103F4000014B1885704700BF6E110020064B0246DA
:103F5000198D988C884205D193F8220018B113600E
:103F600001207047002070476E110020094B998C8A
:103F70001A8D914201D0002070474FF6FF729A844B
:103F800093F82220002AF6D0002283F82220012074
:103F9000704700BF6E110020054B998C1A8D91421D
:103FA00003BF93F82200B0FA80F040090120704767
:103FB0006E11002050B90A4A1346012003F8010B84
:103FC0000868C2F801008A889A807047012805D1E4
:103FD000034B0A689A608A88D8719A81704700BF3B
:103FE0009811002048B90A4B187880B1D3F8012005
:103FF000B3F805300A608B807047012806D1044B66
:10400000D87920B19A680A609B89F4E7002070474C
:104010009811002020B9054B187800F00100704776
:1040200001280ABF014B0020D879F6E7981100203B
:10403000F7B500228B888DF80600ADF804300868CB
:104040000C4B8DF80720019D1C78014603F5AC73DD
:10405000D0B2844201D8082009E0D3E90076AE420C
:1040600008BF8F4203F1080302F10102F0D103B04F
:10407000F0BD00BFA811002030B5094B01465C78A7
:10408000002203F58173D0B2844201D8082005E0F4
:1040900013F8015B8D4202F10102F4D130BD00BF83
:1040A000A8110020F8B52E4C6278013AD2B223183C
:1040B000824293F80251627032D0130101019E1CBA
:1040C0008F1C2644274406F1100C56F804EB47F8E1
:1040D00004EB6645F9D1823382312344214403F154
:1040E000100653F8047B41F8047BB342F9D1A618BB
:1040F000211896F8023181F802314FF485770623B2
:1041000013FB027213FB0070A318A258225004EB99
:10411000000C9B88ACF8043096F83A3181F83A31BB
:104120002846FFF7A9FF082818D12378013BDBB206
:104130009D42237012D02B3304EBC30393E803009A
:1041400005F12B0204EBC20282E803002078FFF79E
:1041500093FF08281CBF241884F80251F8BD00BF43
:10416000A8110020F0B5254D95F8984189B0224658
:1041700005F29911684607F04FFF214668460AF09C
:104180006AFC0446B8B300EB4001C9B202A8FDF7CF
:1041900033FA601E95F8A161C0B2012495F8982108
:1041A00005E0731CB3FBF2F102FB1133DEB206F142
:1041B00020030DEB030111F8203C002BF1D100EBA3
:1041C000400220326A4406EB46032B4412F8187C66
:1041D00083F8A27112F8177C12F8162C83F8A371D9
:1041E00083F8A42101F8204C0138AB19C0B2FF2894
:1041F00083F89941D2D109B0F0BD00BFA8110020C9
:1042000070B5064688B00C46002A4FD02A4A92F86C
:10421000A131D01890F8991121B94FF4807128205C
:10422000FDF75CF803EB43011144013391F8A2510F
:10423000E57091F8A35191F8A411617100212571E5
:1042400080F8991192F89811B3FBF1F001FB10334B
:1042500082F8A13192F8C23123B9184902F5DD7014
:104260000AF034FF657905F03F0545F040056571BA
:104270000D220021684607F063FEE3788DF80F30C9
:1042800023798DF80E3004AA0423694630468DF850
:104290000D5007F0F7FB9DF81F3023709DF81E307E
:1042A00063709DF81D30A37008B070BD03216018C5
:1042B000FDF7A2F9D6E700BFA81100206541000074
:1042C000044B5A78824286BF1B1893F84A0100209B
:1042D000704700BFA8110020044B5A78824286BF65
:1042E0001B1893F842010020704700BFA81100205E
:1042F000064B00224FF461711A8083F8C32183F8C2
:10430000C421A3F8C61183F8C2217047A811002068
:10431000014B83F8C4017047A81100202DE9F04734
:104320008246894617469846FFF782FE08280546CA
:10433000064603D0FFF7A0FE082863D1334C63780C
:10434000072B61D8082D18D12678731C072E2370EF
:1043500003D96B212820FCF7C1FF06F12B03DAB249
:10436000D9F8000044F8320004EBC20104EBC303A7
:10437000B9F804208A8083F806A065786B1C2901AF
:1043800063704B1C07F11002234412F8010D03F86F
:10439000010FBA42F9D1813108F11003214413F819
:1043A000012D01F8012F9845F9D1102140460AF05E
:1043B0008FFB2544102185F8420138460AF088FB1E
:1043C00085F80261667885F84A01002385F83A315C
:1043D00031460F480AF03FFB314605460D480AF0CA
:1043E0003AFB012D03D8002818BF0135EDB284F83F
:1043F00098510025284684F8A151FFF7B3FE2846BE
:10440000BDE8F0871220FBE70720F9E7A81100209C
:10441000EA120020F212002010B5064B587801383D
:1044200040B2002800DA10BDC4B22046FFF73AFEC1
:10443000601EF5E7A8110020014B83F8C301704707
:10444000A8110020014B93F8C3017047A811002068
:10445000431E9BB24AF2B71293429DBF024BA3F890
:10446000C601012000207047A8110020014BB3F8BD
:10447000C6017047A811002030B50A4B5C78844211
:104480000ED9184490F802012B3003EBC004A57933
:104490000D7053F830001060A3889380012030BD68
:1044A0000020FCE7A81100200246074810B590F84C
:1044B000C34124B1417821B1023002F013FF2046FC
:1044C00010BD0C46FBE700BFA81100202DE9F74FF7
:1044D0002F4C9A46637883428046894656D92318E2
:1044E00093F8425185F00105F9B193F84A31E3B9E7
:1044F00045F002070135BAF1000F18D1FA070AD5C5
:10450000062101FB084104EB0810524601F58571B4
:104510008230FFF775FEBB0734D504EB0810524616
:1045200049460230FFF76CFE2CE02F46E3E794F893
:10453000A1614FF0010B002DE0D0A319019393F876
:10454000991199B90092DAB100F03AFC06EB4601F4
:104550002144019B81F8A2014FEA102C009A81F8B6
:10456000A3C1000C81F8A40183F899B194F89831A3
:104570000136B6FBF3F103FB1166F6B2013DDAE753
:1045800047F00407384603B0BDE8F08F0027F9E78D
:10459000A8110020074B5A78824209D91A1892F8BC
:1045A00042212AB9062202FB003000F585707047CF
:1045B00000207047A8110020064B5A78824281BF24
:1045C0001B1893F83A01B0FA80F0400998BF002018
:1045D000704700BFA8110020F8B50E460746062117
:1045E000304615460AF074FA044640B10A48294696
:1045F000427800F59D7007F0A3FC2046F8BD3146D7
:1046000038460AF044FA08281FBF034BC01801249B
:1046100080F83A51F1E700BFA811002030B500241E
:10462000A0F84040B0F8444042F210754C43B4FB4F
:10463000F2F4A0F84440541E05FB0343B3FBF2F32D
:10464000A0F84230084BB3FBF2F30133A0F8483036
:10465000838F05FB0344436BB4FBF2F4594384633B
:10466000B1FBF2F2426330BD005A620270B50446FB
:104670000D4651BB4FF41C7207F062FC012384F815
:104680008E306FF0360384F8D930042384F8DA30A2
:104690006FF03B0384F8DB306F2384F8DC306FF07D
:1046A0003C0384F8DD30062384F8DF302B2384F8C4
:1046B000D830FE2384F80E317F2384F88530202300
:1046C00084F8DE5084F8FB3170BD012922D100232B
:1046D000A0F8BC3180F8B331144B82691344B3FBAA
:1046E000F2F3C0F8B03040F6B833A0F8B430114659
:1046F000438C7830FFF792FF07F0DCFA30B1E069C5
:10470000FEF7EAFD10B984F89F51DDE7002384F835
:104710009F31D9E70229D7D1B0F85232D0F84C22D4
:104720008169BDE870407830FFF778BF7FC3C90169
:10473000034B80F870101B680BB100881847704756
:1047400078000020074B93F900301844142804DC4B
:1047500010F17F0F03DB40B27047142070476FF0F9
:104760007E0070477013002007B57F230DF107000E
:104770008DF8073003F05CFC9DF9073068B10A4AF8
:104780005078404243FA80F0142808DC10F17F0F83
:1047900007DB40B203B05DF804FB1846FAE71420CB
:1047A000F8E76FF07E00F5E770130020024B00225F
:1047B0001A705A70704700BF70130020054BFF221B
:1047C0001A70054A016811600179117100221A708E
:1047D000704700BF721300201800002007B5064B79
:1047E000186800901B798DF804306846FFF7E6FFE3
:1047F00003B05DF804FB00BF961D0300034640783C
:1048000098B1DB783C2B05D8084AD35C1B1A584278
:104810005841704703F11602D2B2042A04D8034A61
:10482000134413F8AD3CF1E70120704778D902003A
:104830003C2908B5C17003D80B4B5B5C437008BDC5
:1048400001F11603DBB2042B04D8074B194411F80D
:10485000AD3CF3E7FF2904D040F259412A20FCF790
:104860003DFD0123EAE700BF78D902002DE9F043BE
:1048700085B0894602A9144698460AF01CF90546F7
:10488000002839D1039E34B9012486F88D40204692
:1048900005B0BDE8F08337692146384608F07BFB58
:1048A000014658B3174B5B88A34229D301AA384667
:1048B00008F0CAFC96F88D300198002B0CBF4946D1
:1048C00002210AF0E5FA019822464146033007F03A
:1048D000A3FB2146384608F0A3FB044618B97D2106
:1048E0002B20FCF7FBFC02A80AF0A6FB039BA3F815
:1048F000AA5186F88D50CAE70124C8E70446C6E7E6
:104900002C46C4E774130020024B987DC04300F08E
:104910000100704774130020034B987D80F0020063
:10492000C0F34000704700BF7413002083230B7056
:10493000014B1B78CB7070478C1300202DE9F74397
:104940004769814638460D4608F070FC014618B9A3
:10495000FC211020FCF7C2FC01AA384608F074FCC8
:10496000064610B94FF48071F3E7019BB9F80000D7
:1049700003F103081D4B1B687BB9B9F80030AB800D
:10498000002301986B72EE800AF08AFA01280ED09B
:1049900002280CD04FF48D71DBE732464146984730
:1049A00004460028E9D1204603B0BDE8F083287210
:1049B000384608F051FC044610B940F22311C8E70C
:1049C000FB2E02D94FF49671C3E7286810B940F264
:1049D0002D11BEE73246414607F01EFB384608F06F
:1049E00083FB0028DFD140F23111B2E780000020C4
:1049F0002DE9F347DFF85C818246894605270025CB
:104A0000D9F8103053B11B7A1BB97E211020FCF766
:104A100065FCD9F81040B4B9002070E0D9F8044022
:104A2000237A012BF8D0EFF3108372B6D9F8042063
:104A30001268C9F8042003B962B6C9F81040237A95
:104A40000BB9A421E2E7267AF6B22772731E0B2B6C
:104A50006DD8DFE803F069061C33666C3C6C6C6C47
:104A60006C57636813B94FF4D471CFE720465146B1
:104A700098470420EFF3108372B6227A052AD1B248
:104A80005FD12572C9F81050ABB962B613E0636804
:104A900013B940F2B111B9E7514620469847034691
:104AA000C3F30723012BADF80400C0B242D0022BA0
:104AB000E0D1C9F810500028A2D020E0636813B9F3
:104AC00040F2B911A2E7204698470020D2E7636878
:104AD0000BB9B3219AE70B228AF8002019881869CC
:104AE000AAF80310012200248AF802208AF805207F
:104AF0008AF8064008F0F8FAC9F81040042002B01D
:104B0000BDE8F087606810B940F2E1117EE7D8F89F
:104B1000003051469847034660B1C9F81050022052
:104B2000EDE74FF4F97171E740F2F5116EE74FF4DC
:104B3000FC716BE726720028E1D1002B7FF460AF97
:104B40006AE711B940F2192160E7002B7FF458AFF2
:104B500062B655E77C00002070B5144C1426231D66
:104B600032460021184607F0EBF90346012525746B
:104B700000210433324604F11800C4E9013307F080
:104B8000DFF984F824500A4A04F11C03C4E906330F
:104B90000023E362236384F83430C4F83530C4F86A
:104BA000393084F83D30136070BD00BF8C13002095
:104BB0008000002010B5084C2378FF2B04D04FF460
:104BC0009D711020FCF78AFB06F0A4FF2070BDE861
:104BD0001040FFF7C1BF00BF1D00002010B5034CFF
:104BE000207806F0B3FFFF23237010BD1D000020C6
:104BF000014B187806F0BABF1D000020014B024A95
:104C00001A6070477C0000203D49000010B506493D
:104C10000446FFF7EDFE28B920460449BDE81040E0
:104C2000FFF7E6BE10BD00BFA413002090130020C4
:104C300010B51346027A22B140F295211020FCF7FC
:104C40004DFB0A46BDE81040014601480AF01BBA78
:104C500090130020044890F834301BB903492C30DD
:104C60000AF02EBA704700BF8C13002079F00000C4
:104C70000346064890F83E203AB190F83D2022B90C
:104C800000F8353B02490AF01BBA70478C1300202C
:104C90002D49000010B50A46037A23B140F29D2148
:104CA0001020FCF71BFB0146BDE81040014807231C
:104CB0000AF0E9B9A41300201346027A0AB103727C
:104CC00070470A46014601480AF0DDB990130020FA
:104CD0001B234FF01B128384038482618382C26092
:104CE000038539B94FF4A473034AC3844384C26172
:104CF000C3820261704700BF480148010346F0B417
:104D0000B3F85420B3F84840B3F84460DF8FB3F8E9
:104D10004250944228BF14460846B3F84C20B3F8DA
:104D20005610DC878A4228BF0A46B3F84610A3F81B
:104D30004220914238BF1146A64238BF2646A742BC
:104D4000A3F84460A3F846101FD1AA1A18BF012285
:104D5000B3F84A50B3F85040B3F852709E8FB3F88E
:104D60004010A54228BF2546B3F84E409D87BC425F
:104D700028BF3C46AE42A3F8404002D1A14200D138
:104D80002AB1F0BC03490AF0A4B90122E0E7F0BC63
:104D9000704700BFD9F000000B8BA2F80B304B8B93
:104DA000A2F80D308B8BA2F80F30CB8BA2F8090044
:104DB0000249A2F8113010460AF085B929F1000025
:104DC000094AD2E90003434083EAB01181EA432152
:104DD0004FEAF3435360054B116058434FEAF060CC
:104DE00000EB8000704700BFCC130020BB79379EDA
:104DF000094AD2E90003434083EAB01181EA432122
:104E00004FEAF3435360054B116058434FEAF0609B
:104E100000EB8000704700BF20000020BB79379E68
:104E200010B50A4C09480821FCF7E6FBD4E9002339
:104E30001343F7D0064CFFF7DBFF2060FFF7D8FFE6
:104E4000236860600343F6D010BD00BF200000203F
:104E5000CC130020174B184A9A60184A5A60184A17
:104E60001A60184A9A62184ADA62184ADA60184ACE
:104E70009A61184A1A63184A1A62184ADA64184A78
:104E80009A64184A5A62184B184A9A60184A5A6229
:104E9000184ADA62184A1A61184A5A61184A9A611D
:104EA000184A1A63184A9A64184ADA64184A9A63C4
:104EB000704700BF84000020EDF3000023F40000E1
:104EC0009BF4000021F6000075F600003D52000042
:104ED0008BF60000915400002153000059F70000A8
:104EE00075F70000695300008C0100200FF40000EA
:104EF0002BF70000ADF6000051F60000D1F60000DF
:104F0000C1520000FBF70000A3F7000095F7000076
:104F100011F70000044B054A5A65054B054A1A650E
:104F2000054A5A65704700BF840000205BF5000009
:104F30008C01002041F50000CDF50000054B064A2C
:104F40009A65064A1A66064B064A9A65064ADA6563
:104F5000704700BF840000204DE90000D53C0000F0
:104F60008C0100209DE80000F5E90000252A70B5BD
:104F700005460C4618D8012A19D9023A232A16D810
:104F8000DFE802F01A152524243315351524394499
:104F90004815154D242467676D74151515151515DD
:104FA0001515151515808990FF2A00F0828040F2B2
:104FB00066415120FCF792F902784368012A02D138
:104FC00093F8103101E093F81931237170BD4168F5
:104FD000204601F5E37109F0CCFF6B682046D3F859
:104FE0000411BDE8704009F0C6BF4368E8E7BDE8BA
:104FF000704000F017BA0E230B7159234B71002338
:105000008B71F323CB7110230B72DFE7436893F8A6
:105010000A31DAE7BDE87040084600F0F3B90378DA
:10502000466873B996F810315BB196F80D112046B9
:1050300009F0F0FF96F80C112046BDE8704009F029
:10504000EDBF96F80B11204609F0E4FF96F80A111F
:10505000F2E741682046BDE870400AF07DB9436838
:1050600093F82621227193F8273109E0436893F8D9
:105070002421012AF4D093F864200A7193F8653052
:105080006371A3E7104B1B68002B9FD002462320BF
:10509000BDE8704018470C4B1B68002B96D00246A9
:1050A0002420F5E7084B1B68002B8FD002462520F3
:1050B000EEE74368204693F83F22D3F84012BDE85C
:1050C000704009F0F1BE00BF940200203C2803D8D4
:1050D000064B53F82000704700F11603DBB2042B97
:1050E00001D8AD38F4E70020704700BF84000020ED
:1050F0003C2803D8064B53F82000704700F11603F4
:10510000DBB2042B01D8AD38F4E70020704700BFB4
:105110008C010020F7B545682E6904464FF6FF77ED
:105120000DF102010DF101023046ADF8027007F0F9
:1051300093FF01A9304607F0B2FF40B1019808F093
:1051400089F8616800220272FFF7A4FDE8E70449CC
:1051500005F1A00003B0BDE8F04009F0B4BF00BF06
:1051600089F30000F0B5044685B00D46FF2600F82F
:10517000896C10F88A3CF3B1184F3B781BB1482179
:105180001F20FCF7ABF80C21381DFCF735FA3E70F8
:10519000002304F8893C2A46072302F8033BD4F88D
:1051A0000930C5F80330D4F80D305360D4F811300D
:1051B000936005B0F0BD01A80C21FCF71DFAA4F521
:1051C0001673039AC3F8042101AB03CB44F8920C85
:1051D00044F88E1C04F88A6CDAE700BFD413002070
:1051E00010B5054C23782BB90C21201DFCF704FACF
:1051F000FF23237010BD00BFD4130020024690F897
:10520000CE31BBB990F8CF3103F0FF010BB10020D4
:105210007047094B18780028F9D01970D968C2F87E
:105220000411043303CBC2F8C601C2F8CA11FF232C
:1052300082F8CE3101207047D413002070B5426847
:1052400092F8873004460D463BB1132B05D0113B35
:105250000B2B94BF0820012070BD92F8C83013B901
:1052600020460AF036F86168284601F5DF7109F03A
:1052700076FE2846666809F079FE6168C6F8000186
:105280000B88A1F86132284601F2632109F05FFE24
:105290006168284601F26B2109F05EFE6368002513
:1052A00083F8CE516068054900F5167009F008FFD3
:1052B0006368152283F887202846CDE765510000F2
:1052C00038B5436893F887201C2A044604D04FF46D
:1052D000DE711F20FCF702F893F8C8101D88002229
:1052E00083F8C72003F5C97069B10B4983F8C8205A
:1052F000A3F89C5183F89B2109F0E2FE6368002229
:1053000083F8872038BD012283F89B11A3F89C51B4
:10531000024983F89E21EFE70DF60000FFF500003B
:1053200038B54568AB6F13F0010417D14A680C4BD0
:10533000896813400B4AC5F8D830C3F3076343F0BC
:1053400008030A4085F8DB30C5F8DC2009F0C1FF0E
:10535000AB6F43F00103AB67204638BD0120FCE78B
:105360002FC904F76FDB000610B5406890F886304F
:10537000042B2BD14A68174B8C681340C0F8D830E7
:10538000154AC3F3076343F00803224080F8DB307B
:105390000023C0F8DC2080F8C23080F8863090F816
:1053A000742102F0FF049AB90388A0F8763180F8DE
:1053B00075414B68C0F878318B68C0F87C3107497B
:1053C00000F5B67009F07CFE204610BD0124FBE715
:1053D0001C46F9E72FC904F76FDB0006EFF6000063
:1053E000406890F8743153B90388A0F876311A23D5
:1053F00080F87531024900F5B67009F061BE70475A
:10540000EFF6000010B50446FEF700FC034A044B1B
:1054100002400B406260A36010BD00BF2FC904F7BB
:105420006FDB000637B50C464568FEF7EFFB084A10
:10543000084B0A4095F8D8100192034000930B40A6
:105440008DF800306B4603CB6060A16003B030BDC7
:105450006FDB00062FC904F7DB0410B5144604D532
:10546000037D13B10023436310BD436B01334363DA
:105470000AF0A4F9D0E90D239A42F5D3002343633F
:1054800002492046BDE8104009F023BE4BF700005A
:1054900070B5446894F88630012B06460D4602D05C
:1054A000A36F9A073ED494F8C9309B0719D42846B5
:1054B00009F063FD84F8D300B5F80530A4F8D430C2
:1054C000B5F80730A4F8D63094F8C93043F002029A
:1054D000D80784F8C9200FD5134904F1CA0009F090
:1054E000F8FD94F8C930D90711D4A36F9A0708D5ED
:1054F00055214020FBF7F2FE94F82A31002BEBD126
:10550000EFE743F00203A367304609F0E2FE94F8A8
:105510008630012B4FF0000003D184F8860084F818
:10552000C20070BD0120FCE7DDF7000070B54568E2
:105530000446FFF719F9054B85F885001B680146FD
:105540001BB12046BDE87040184770BD9C0200208A
:10555000024B1B6803B11847704700BF9802002038
:10556000F0B5204E054630780024147080B1431EFB
:105570007768DBB2181B01280BDC07EBC40057F877
:1055800034604068884208BFAE4212D114700120D6
:10559000F0BD1819461007EBC60E57F836C0DEF8F6
:1055A0000460AC45C0F347008E412CBF034604465F
:1055B000E0E7B54271EB000002D214700020E7E78B
:1055C00007EBC30057F833404068884208BFAC423D
:1055D00001D11370DBE7A542814128BF013313706D
:1055E000ECE700BFF413002010F0070208B503D069
:1055F00063214820FBF772FE18B1034B1972586003
:105600001A70C80008BD00BFF4130020014B00222F
:105610001A707047F4130020014B187A704700BFCE
:10562000F41300202DE9D3430AF009F90DF1070224
:1056300007460E46FFF794FF98B9114C2278237A5B
:1056400093420ED0616813466FF0604E9DF80700DC
:10565000984209D301EBC003C3E9007601322270FE
:10566000012002B0BDE8D08303EB0E0001EBC000C7
:10567000D0E90089013BC0E90289DBB2E6E700BF5F
:10568000F413002037B50AF0DAF80DF10702FFF73E
:1056900067FF0446A0B10C4A9DF8070013785568CF
:1056A000013BDBB213701A1AD2B2411CD200834202
:1056B00038BF002205EBC10105EBC00006F0FAFB84
:1056C000204603B030BD00BFF41300200A468223F9
:1056D00002F8033B04480368C1F803304368536091
:1056E00083689360704700BFFD13002002481622B4
:1056F000002106F025BC00BFFD13002082B002ABE4
:1057000003E903000B48437D93B1530610D50A8883
:105710000280D1F82022B1F880304260D1F82422F2
:1057200005498260438002220C3002B0FFF7C4BA00
:1057300002B07047FD130020CD56000038B5074D6C
:10574000044600F15101286809F018FB94F8501044
:105750002868BDE8384009F01FBB00BF14140020C2
:10576000F8B504460E466588407F15F004011346DF
:1057700018BF04F15F013246FEF7A8FEC2070546D6
:105780000BD5012384F85030607FFEF703FF0368D8
:10579000C4F851308388A4F85530AB070CD5094EB6
:1057A0000127306884F85E7004F15F0109F0EDFABA
:1057B0003068394609F0F9FA85F00400C0F380003A
:1057C000F8BD00BF1414002038B5C38D0E4D013351
:1057D000C385AB7C04462BB102F01CFC01F0B4FD88
:1057E0000023AB7400232B7194F871302BB101218D
:1057F0002046BDE8384008F099B9637C13B1E28DCA
:105800009A42F4D20021F3E71414002010B5094C99
:105810002379012B02D02379022B05D1A37C1BB164
:1058200002F0F8FB01F090FDE069BDE81040FFF7E1
:10583000CBBF00BF1414002070B5294C2379012B75
:1058400007D02379022B04D040F638412D20FBF7F6
:1058500045FDA0B90125A37C1BB102F0DBFB01F0E3
:1058600073FD002D3AD0E06908F0D8F8002830D058
:1058700002F0B8FA236ABDE870409B6818472168B7
:10588000E26911F8095B02F15103E80992F850202E
:1058900009F0C3F80028DDD02068002109F0AAFA39
:1058A0000028D7D02379E069012B05D02379022B7A
:1058B00002D040F61141C9E72379226A03F18043FF
:1058C0005269013B05F00F0152F823309847054615
:1058D000C1E7E069BDE87040FFF776BF70BD00BF6B
:1058E00014140020074A0346D06903B909B9FFF729
:1058F0006BBF1379126A03F180431269033B52F8BC
:1059000023301847141400202DE9F043032985B0F3
:10591000054690467BD090F870300529DBB202D165
:105920004288D60760D5002B5ED10127DFF8E890CA
:1059300099F81260B6B109F0B4F8082888F80000A8
:1059400014D002AA0DF10701FEF796FD20B940F62A
:10595000A4612D20FBF7C2FC9DF8070002A909F005
:105960007AFF064698F80030082B08D1D9F80010C5
:1059700011F8030BC0F3801009F06DFF0646D9F84B
:10598000001095F8572011F8030B05F15803C0F3E8
:10599000801009F042F8D9F80010044611F8030B02
:1059A000C0F3801009F073F88146FEF705FE01464A
:1059B00040B1B9F1080F1BD04846FEF781FC80F0DA
:1059C0000101C9B298F80000082815D094B96B7F7E
:1059D0001C1A604260416B885A0706D421B996B9F7
:1059E000EB7C93B1BB4210D0002005B0BDE8F08342
:1059F0000021E7E70120EEE714B181F00104E4B2F1
:105A000004F00100E7E73046EFE70120EDE74388C7
:105A10009B07E9D5022789E7141400202DE9F04FF0
:105A200085B008230DF10702052104468DF80730E3
:105A3000FFF76AFF064620B90026304605B0BDE8EC
:105A4000F08F744F3968FA7C11F8030B07F11403D7
:105A5000C0F3801008F0E1FF80460028ECD13B68DD
:105A6000216A184691F88E2010F8035B02EA55125D
:105A700002F0010281F88E20D3F80320C1F8032040
:105A80008288A1F807201946226A11F81F0BC0F37B
:105A90008010907009798DF80C10D3F80F10D3F89E
:105AA0001F00D161597D0290187D090441EA00214F
:105AB000D87C01435162B3F8191082F8728040F229
:105AC000E24909FB01F191619D7DC5EB451105EBB3
:105AD000810505EB85056D009585B3F8171009FB69
